:020000040800F2
:1000000000400020251000086D1000086D10000849
:100010006D1000086D1000086D1000080000000051
:100020000000000000000000000000006D1000084B
:100030006D100008000000006D1000081501000898
:100040006D1000086D1000086D1000086D1000089C
:100050006D1000086D1000086D1000086D1000088C
:10006000000000006D1000086D1000086D10000801
:100070006D1000086D1000086D10000800000000F1
:100080006D1000086D100008000000006D100008E1
:100090006D1000086D1000086D1000086D1000084C
:1000A0006D1000086D1000086D100008250C000888
:1000B000A10C00080000000000000000000000008B
:0C00C0006D100008000000006D1000082A
:1000CC0000F000FD00F044FE40F60F40C0F60000CA
:1000DC0000F0C2FC40F22800C2F2000000F06BFB02
:1000EC0040F22C04C2F2000420462C21112200F014
:1000FC002DFF20462B21012200F028FF002000F0CC
:10010C0072FC00F06FFBF9E780B500F083FB00F0A8
:10011C00FFFDBDE8804000F00BBED4D441F20000DE
:10012C00C4F20200016841F0010101600168890715
:10013C00FCD5416821F00301416000BF416811F01A
:10014C000C0FFBD101684FF6FF72CFF6F262114033
:10015C0001600021416041F61071C1624FF48011C1
:10016C0001634FF41F0181604EF60850CEF200007F
:10017C004FF0006101607047B0B541F2040441F2E8
:10018C000025C4F20204C0F27A0500F0AAF9022894
:10019C000CD000284AD1206D800547D5E06A80013B
:1001AC0044BF46F60045C0F2DC253FE02068A16A5A
:1001BC004FEA104C002920D421682268890CC2F324
:1001CC004172130101F00F01581C0F29034618BF8F
:1001DC000223002A18BF03465FEACC7003EB010030
:1001EC0004D02168890301D445431FE040F6001177
:1001FC00C0F23D0100FB01F518E0A06AA36AC0F350
:10020C00031EA06A40F60011C0F23D01C3F308239F
:10021C005FEACC7200F0070003D02268920358BF4B
:10022C00294659430EFA00F0B1FBF0F540F20000FC
:10023C00C2F200000560216841F2B802C1F303115B
:10024C00C0F60002515C25FA01F10160B0BDD4D4B6
:10025C000A88B2B3F0B500234FF0030C4FF0010E37
:10026C00002400BFD50724D006680CFA03F5AE4372
:10027C0006608E7907689E403E43066046680EFA1B
:10028C0004F7BE4346600E794768A6403E4346607D
:10029C008668AE438660CE7987689E403E43866012
:1002AC00C66826EA0505C5604D79C6689D4035438C
:1002BC00C560520804F1010403F10203D2D1BDE878
:1002CC00F04070474FF6FF714FF08072C0E900129A
:1002DC0070478161704781627047D4D441F200004D
:1002EC00C4F20200016841F0010101600168890754
:1002FC00FCD5416821F00301416000BF416811F059
:10030C000C0FFBD101684FF6FF72CFF6F262114071
:10031C0001600021416041F61071C1624FF48011FF
:10032C0001634FF41F018160704741F22001C4F258
:10033C0002010A6800F0010022F0040242EA800087
:10034C000860704741F20002010CC4F202028958A5
:10035C0000F01F0021FA00F000F00100704741F29C
:10036C00000200F01F034FF0010CC4F2020201293D
:10037C000CFA03F14FEA1040835814BF23EA010131
:10038C00194381507047D4D4042888BF7047DFE8E4
:10039C0000F0032A15210C0041F20000C4F2020007
:1003AC00026861F300020260704741F20000C4F27F
:1003BC000200426A61F300024262704741F200009F
:1003CC00C4F20200026801F0010122F0807242EADC
:1003DC00016113E041F20000C4F20200026A61F311
:1003EC0000020262704741F20000C4F2020002688F
:1003FC0001F0010122F4803242EA014101607047B0
:10040C0041F20401C4F202010A6800F00F0022F06C
:10041C00F00242EA00100860704741F20401C4F295
:10042C0002010A6800F0070022F4E06242EA0020B0
:10043C000860704741F20401C4F202010A6800F03E
:10044C00070022F4605242EAC0200860704741F273
:10045C000402C4F20202136858B143F480331360EF
:10046C00136801280DD123F4003010604FF0007098
:10047C000BE023F480301060D06A40F00070D06242
:10048C0002E043F4003010600020136861F39543E0
:10049C0013601368090961F35E731360916A21F0AC
:1004AC00E06108439062704741F20401C4F202011A
:1004BC000A6860F301020A6000BF00BF00BF00BF02
:1004CC0000BF00BF00BF00BF00BF00BF00BF00BF28
:1004DC0000BF00BF00BF00BF00BF00BF00BF00BF18
:1004EC00704741F20400C4F202000068C0F38100BE
:1004FC007047D4D441F20401C4F202010B6841F2FA
:10050C000022C0F27A02C3F38103F0B5DFE803F0F6
:10051C0002480D480B6D9B0542D5CB6A9B0144BF2D
:10052C0046F60042C0F2DC223AE00B688C6A1F0CE3
:10053C00002C1CD40C680B68A40CC3F341731D0174
:10054C0004F00F046E1C0F2C354618BF0225002B2F
:10055C0018BF3546FB0705EB040302D00F68BF0339
:10056C0003D540F60012C0F23D025A4318E08B6AE4
:10057C008C6AC3F3031E8B6A40F6001CC0F23D0C60
:10058C00C4F30824FD0703F0070303D00D68AD0383
:10059C0058BF94460CFB04F20EFA03F3B2FBF3F2D1
:1005AC0002600B6841F2B807C3F30313C0F60007EF
:1005BC00FB5C41F2D007DA4042600B68C0F60007E2
:1005CC00C3F30223FB5C22FA03F3C3600B68C3F38F
:1005DC00C223FB5C0427DA4082600B68096807EAD7
:1005EC009363C1F38131194441F2C803C0F600038F
:1005FC00595CB2FBF1F10161F0BD41F25401C4F25E
:10060C0002010A68012822F0300208BF30320A6069
:10061C007047B0B54EF60C5ECEF2000EDEF8003030
:10062C004FF0FF35C3F3022383F00704042C28BFDB
:10063C000424033B05FA04F438BF0023A1434EF213
:10064C00001C994005FA03F3CEF2000C9A431143B7
:10065C0000F00F0200EB0C030901043A03F54073A0
:10066C000028724448BF02F10C03197048BFB0BD9A
:10067C0000F01F01012202FA01F1C0F342104CF804
:10068C002010B0BD6FF35F2141607047406880B2AD
:10069C0070470068084018BF01207047CA0602D096
:1006AC00016840687047C9430160704747F2000118
:1006BC00C4F200010A6800F0010022F4807242EAE0
:1006CC0000200860704770B5044600286FF00700E2
:1006DC0031D00D4679B340F24406C2F200063078B0
:1006EC0030B940F24800C2F2000000F03EF9307818
:1006FC00013030702868002104F13006C4E9000193
:10070C00304600F03DF92068E463206304F10800F2
:10071C0000F02BF940F24800C2F20000314600F024
:10072C0033F9686805F1080100281ABFE06200205F
:10073C006FF00A00A16270BD28B10146406800222A
:10074C0008B14A60704700207047704740F248007B
:10075C00C2F20000704740F25C00C2F2000000F0F0
:10076C0004B9D4D42DE9F04140F25C00C2F200008F
:10077C00056900F10806B54218D041F27E18C0F6A2
:10078C0000080027EC6874B1616821B940467621F5
:10079C0000F054F861682068884720B904F10C0017
:1007AC0000F00FF92772AD68B542EBD10020BDE81F
:1007BC00F0817047704798B180B5006850B140F235
:1007CC000401C2F20001086040F27000C2F20000A5
:1007DC0000F09DF8FFF7BFFFBDE88040FFF7B5BF05
:1007EC007047D4D4B0B5FFF7B1FF70B1046900F114
:1007FC00080500BFAC4209D0E06830B1816A21B174
:10080C004968C06A8847A468F4E7B0BDBDE8B04049
:10081C00FFF7A8BFB0B5FFF799FF70B1046900F1FD
:10082C00080500BFAC4208D0E06830B1816A21B144
:10083C000968C06A8847A468F4E7B0BDFEE708B150
:10084C000020704780B541F2EA0041F25611C0F623
:10085C000000C0F600016A22FFF7ACFF6FF0130036
:10086C0080BD10B558B10446006840B1FFF764FF75
:10087C0018B10146204600F010F8002010BD41F2DE
:10088C00021041F25611C0F60000C0F600014E22D3
:10089C00FFF790FF6FF0130010BDB0B550B30446D6
:1008AC00406838B30D46C8070FD041F2D80041F26A
:1008BC005611C0F60000C0F600013022FFF77AFF97
:1008CC00616808688A6889889047A80758BFB0BDD6
:1008DC0041F26C1041F25611C0F60000C0F6000156
:1008EC003522FFF767FF61680868CA688988BDE828
:1008FC00B040104741F22C1041F25611C0F60000E6
:10090C00C0F600012A22BDE8B040FFF753BF10B576
:10091C00E0B1D9B1096840F27C02C2F20002C0E930
:10092C00002140F20C01C2F2000148600068FFF7A0
:10093C00CAFE0446B0F1FF3F15DC41F25611C0F679
:10094C00000120469822FFF734FF0CE041F296108C
:10095C0041F25611C0F60000C0F600018622FFF7E6
:10096C0029FF6FF01304204610BD4FF0FF310246F3
:10097C0042F8081F00214260C0E903220160704761
:10098C00002101617047D4D480B5D1F800C01CF1AE
:10099C00010207D000F108029646526813686345BD
:1009AC00FAD903E0D0F810E0DEF804204A60916038
:1009BC00C1F808E0CEF8041008610168013101604B
:1009CC0080BDD0E901230169936042685A604A688E
:1009DC00824201D182684A600022026108680138B3
:1009EC0008600868704740F2C002C2F2000210882A
:1009FC0040F21C0CC2F2000C431CBCF80000590560
:100A0C00138008D1411C88B240F6FF72801A18BFBF
:100A1C000846ACF8000010B540F2C80401B240F230
:100A2C00FF72A0F2FF73C2F200049142B8BF131A16
:100A3C00228899B28A4240F2C401C2F200010968CC
:100A4C004FF0000088BF012088472088411C6FF3BD
:100A5C001F310020218010BD40F2C401C2F2000100
:100A6C000860704780B5B0F800C0B0F804E00CF135
:100A7C000102B2FBFEF303FB1E2243889A4204BF21
:100A8C00012080BD826802F80C1001888288013137
:100A9C00B1FBF2F303FB12110180002080BD03882F
:100AAC004288934204BF0220704783689A5C0A70A4
:100ABC00418882880131B1FBF2F303FB12114180B2
:100ACC000020704780B542F20000C4F2020040F2F0
:100ADC0053110160FFF702FC00200121FFF754FCC9
:100AEC000120FFF72FFC0128FAD100201D21FFF770
:100AFC00AEFC02200121FFF747FC00BF1920FFF7D5
:100B0C0021FC0128FAD10020FFF77AFC0020FFF726
:100B1C0091FC0020FFF781FC0120FFF76EFD022005
:100B2C00FFF7C2FCFFF7DDFC0228FBD10020FFF72A
:100B3C0064FDBDE88040FFF71FBBD4D410B586B070
:100B4C0001AC2046142100F019F92046FFF7D2FC25
:100B5C00019944F6D350C1F26200A1FB00024FF0A0
:100B6C00FF3000EB921040F20002C2F20002B0F132
:100B7C00807F116001D300BFFEE74EF21001CEF270
:100B8C00000148604EF62350CEF20000F0220270B5
:100B9C0000208860072008604FF0FF3002210222FD
:100BAC00FFF737FD012000F05BF906B010BD10B562
:100BBC004FF01C100121FFF7D2FB0120FFF776FD4F
:100BCC000020FFF7B2FB03200021FFF7DDFB002024
:100BDC00FFF76CFD1124C0F2140420460121FFF72D
:100BEC00BEFB601C0121FFF7BAFB601D0121FFF762
:100BFC00B6FB0820C0F21C000121BDE81040FFF735
:100C0C00AEBB20B14FF090402021FFF764BB4FF0FA
:100C1C0090402021FFF75DBBB0B582B043F60004D5
:100C2C00C4F20104E068800612D520462021FFF7AB
:100C3C0030FD68B12046FFF729FD40F2F005C2F205
:100C4C000005C1B22846FFF70DFF4FF48170A88153
:100C5C00E06840061CD520464021FFF71AFDB8B1CC
:100C6C0020464021FFF71AFD40F2F005C2F20005C4
:100C7C0005F110000DF10701FFF711FF08B100207D
:100C8C0005E09DF807102046FFF7FCFC0120687773
:100C9C0002B0B0BDB0B582B044F20044C4F200045E
:100CAC00E068800612D520462021FFF7F2FC68B1DF
:100CBC002046FFF7EBFC40F2CC05C2F20005C1B2B6
:100CCC002846FFF7CFFE4FF48170A881E0684006FC
:100CDC001CD520464021FFF7DCFCB8B12046402152
:100CEC00FFF7DCFC40F2CC05C2F2000505F1100068
:100CFC000DF10701FFF7D3FE08B1002005E09DF8C8
:100D0C0007102046FFF7BEFC0120687702B0B0BD8B
:100D1C0040F2F000C2F20000417B012918BF70477D
:100D2C00017B11B101390173704702214173704786
:100D3C0040F2CC00C2F20000417B012918BF704781
:100D4C00017B11B101390173704702214173704766
:100D5C0080B582B0FFF72BFF202000900020C0F25E
:100D6C000110019069464FF09040FFF771FAFFF7C0
:100D7C00E5FE6846FFF7A6FA02B080BD0A460021E0
:100D8C0000F000B800239A4208BF7047C1540133E9
:100D9C00F9E77047B0B500F0B0F84DF68361C4F2D6
:100DAC001B31A0FB011244F6D351C1F26201A0FB2E
:100DBC000101900C40F22402C2F20002106088097A
:100DCC0040F22001C2F200010860EFF3108472B609
:100DDC0000F017F840F21815C2F20005C5E9000141
:100DEC00BFF34F8FBFF36F8F00F00BF8D5E90012F4
:100DFC00401A40F21411C2F20001086084F310880A
:100E0C00B0BD70B5EFF3108672B600F08BF80546E6
:100E1C000C4600F078F850B100F084F804460D460A
:100E2C0000F079F800196941451C41F1000440F2C9
:100E3C002010C2F20000D0E9000140F23812C2F2D8
:100E4C0000024019D2E900356141C31A71EB050368
:100E5C00ACBFC2E90001D2E9000186F3108870BD75
:100E6C00B0B5EFF3108572B600F033F8044600F01D
:100E7C0065F885F31088FFF78DFF40F22010C2F261
:100E8C0000000021C0E9001140F22810C2F200005D
:100E9C00C0E9001140F23010C2F20000C0E90011AC
:100EAC0040F23810C2F20000C0E9001140F24010CC
:100EBC00C2F20000C0E9001140F24810C2F200007A
:100ECC00C0E90011FFF765FF2046B0BD0120FFF718
:100EDC00C7BF80B94EF21001CEF2000100226FF0B4
:100EEC007F43EFF3108072B60A604B608A60072272
:100EFC000A6080F310880120704740F20000C2F2B3
:100F0C000000006870474EF60450CEF200000068F6
:100F1C00C0F3806070474EF21400CEF200000068FF
:100F2C00002170474EF21400CEF2000001684068B8
:100F3C00081A4FF0000161F1000170474EF60450A1
:100F4C00CEF200004FF000710160704780B582B0A6
:100F5C0000232B298DF80720009307D02C290CD1C6
:100F6C008DF802206A462C21042303E00DF10702C0
:100F7C002B21012300F006F801E06FF0070002B00E
:100F8C0080BDD4D42DE9F04389B00DF1040808F1EB
:100F9C0004050E46814628461C211C461746FFF7C1
:100FAC00EDFE99F8081020208DF804008DF805103E
:100FBC008DF806608DF8074047B13CB1204600BF64
:100FCC0017F8011B013805F8011BF9D1E11C0806C3
:100FDC000CD008F10100CAB2002100BF10F8013B8F
:100FEC00013A81EA0301F9D1C84300E0FF2004EB88
:100FFC00080108710320D9F80C304871A21D00209B
:10100C00414600249847002808BF6FF0130420467F
:10101C0009B0BDE8F083D4D4002103E00B4B5B583E
:10102C004350091D0A480B4B42189A42F6D30A4A00
:10103C0002E0002342F8043B084B9A42F9D3FFF735
:10104C006DF800F00FF8FFF73BF87047CC11000873
:10105C000000002028000020280000205001002063
:10106C00FEE7D4D4B0B502AF0B4C0C48001B851076
:10107C001DB101CC8047013DFAE7094808B100F0E9
:10108C0000F8084C0848001B85101DB101CC8047A6
:10109C00013DFAE7B0BD00BFC8110008C811000837
:0C10AC0000000000C8110008CC11000872
:1010B8000000000000000000010203040607080900
:1010C80002040608020C08100000000001020304D4
:1010D800676574204576656E745F53746F726167D7
:1010E80065004572726F723A207074546869732093
:1010F8006973204E554C4C2E0A004572726F723A35
:1011080020707454686973206F7220707454686911
:10111800732D3E707442617365206973204E554C7F
:101128004C2E0A004572726F723A207074546869C6
:1011380073206F72207074546869732D3E70744404
:10114800617461206973204E554C4C2E0A002E2E76
:101158002F2E2E2F676D73692F6773746F726167F7
:10116800652E6300676574204576656E745F476514
:101178007444617461002E2E2F2E2E2F676D7369B3
:101188002F67636F726F7574696E652E63004572A1
:10119800726F723A20707454686973206F7220708D
:1011A80074436667206973204E554C4C2E0000002E
:1011B80014EFFF7F01000000F8FEFF7F0100000030
:0411C800D90E000834
:1011CC0000127A000000000060EA00000109000033
:1011DC00000000004B0800086F080008FF07000023
:0811EC000100000001000000F9
:020000042000DA
:10015000000000000000000000000000000000009F
:10016000000000000000000000000000000000008F
:10017000000000000000000000000000000000007F
:0400000508001025BA
:00000001FF
