:020000040800F2
:1000000000400020B1200008F9200008F920000875
:10001000F9200008F9200008F9200008000000007D
:10002000000000000000000000000000F9200008AF
:10003000F920000800000000F9200008490100082C
:10004000F9200008F9200008F9200008F92000082C
:10005000F9200008F9200008F9200008F92000081C
:1000600000000000F9200008F9200008F92000082D
:10007000F92000089F170008F92000080000000080
:10008000F9200008F920000800000000F92000080D
:10009000F9200008F9200008F9200008F9200008DC
:1000A000F9200008F9200008F92000086F14000862
:1000B000EB14000800000000000000000000000039
:0C00C000F920000800000000F9200008F2
:1000CC0000F07CFF01F06FFA41F23B30C0F600000B
:1000DC0000F064FE40F2D80040F20001C2F20000D1
:1000EC00C2F2000101F06CFE40F2041040F2A001DB
:1000FC00C2F20000C2F2000101F0B0FF40F20810A1
:10010C0040F20C01C2F20000C2F2000101F044FF07
:10011C0040F21C1040F21001C2F20000C2F20001C9
:10012C0001F0C9FE40F2D400C2F2000000F0F8FC6D
:10013C00002000F0FAFD00F009FDF9E780B500F0B1
:10014C001DFD01F010FABDE8804001F01CBAD4D4BA
:10015C0041F20000C4F20200016841F001010160AB
:10016C0001688907FCD5416821F00301416000BF9B
:10017C00416811F00C0FFBD101684FF6FF72CFF6FE
:10018C00F262114001600021416041F61071C162C0
:10019C004FF4801101634FF41F0181604EF608503B
:1001AC00CEF200004FF0006101607047B0B541F233
:1001BC00040441F20025C4F20204C0F27A0500F0F6
:1001CC00CCF902280CD000284AD1206D800547D5E7
:1001DC00E06A800144BF46F60045C0F2DC253FE0F2
:1001EC002068A16A4FEA104C002920D421682268AB
:1001FC00890CC2F34172130101F00F01581C0F2935
:10020C00034618BF0223002A18BF03465FEACC70CE
:10021C0003EB010004D02168890301D445431FE09E
:10022C0040F60011C0F23D0100FB01F518E0A06A98
:10023C00A36AC0F3031EA06A40F60011C0F23D0190
:10024C00C3F308235FEACC7200F0070003D02268E6
:10025C00920358BF294659430EFA00F0B1FBF0F552
:10026C0040F22400C2F200000560216842F2441200
:10027C00C1F30311C0F60002515C25FA01F10160D3
:10028C00B0BDD4D40A88B2B3F0B500234FF0030C40
:10029C004FF0010E002400BFD50724D006680CFADD
:1002AC0003F5AE4306608E7907689E403E430660B8
:1002BC0046680EFA04F7BE4346600E794768A640BE
:1002CC003E4346608668AE438660CE7987689E4022
:1002DC003E438660C66826EA0505C5604D79C6684A
:1002EC009D403543C560520804F1010403F102033B
:1002FC00D2D1BDE8F04070474FF6FF714FF08072DD
:10030C00C0E90012704700690840401AB0FA80F04A
:10031C004009704781617047816270471823002A39
:10032C0008BF2823C150704710B51C2303EA810E67
:10033C0024234FF00F0C082938BF2023C4580CFA83
:10034C000EF124EA0101C150C15802FA0EF2114318
:10035C00C15010BD41F20000C4F20200016841F02E
:10036C000101016001688907FCD5416821F0030196
:10037C00416000BF416811F00C0FFBD101684FF6D2
:10038C00FF72CFF6F262114001600021416041F62C
:10039C001071C1624FF4801101634FF41F01816031
:1003AC00704741F22001C4F202010A6800F001001A
:1003BC0022F0040242EA80000860704741F2000219
:1003CC00010CC4F20202895800F01F0021FA00F05F
:1003DC0000F00100704741F2000200F01F034FF0E3
:1003EC00010CC4F2020201290CFA03F14FEA10408D
:1003FC00835814BF23EA0101194381507047D4D4A8
:10040C00042888BF7047DFE800F0032A15210C0090
:10041C0041F20000C4F20200026861F300020260C3
:10042C00704741F20000C4F20200426A61F300021C
:10043C004262704741F20000C4F20200026801F00F
:10044C00010122F0807242EA016113E041F20000E6
:10045C00C4F20200026A61F300020262704741F2C8
:10046C000000C4F20200026801F0010122F48032A3
:10047C0042EA01410160704741F20401C4F20201F9
:10048C000A6800F00F0022F0F00242EA0010086047
:10049C00704741F20401C4F202010A6800F007003F
:1004AC0022F4E06242EA00200860704741F2040145
:1004BC00C4F202010A6800F0070022F4605242EA1A
:1004CC00C0200860704741F20402C4F202021368B3
:1004DC0058B143F480331360136801280DD123F411
:1004EC00003010604FF000700BE023F4803010608F
:1004FC00D06A40F00070D06202E043F4003010602B
:10050C000020136861F3954313601368090961F3C4
:10051C005E731360916A21F0E0610843906270474A
:10052C0041F20401C4F202010A6860F301020A609C
:10053C0000BF00BF00BF00BF00BF00BF00BF00BFB7
:10054C0000BF00BF00BF00BF00BF00BF00BF00BFA7
:10055C0000BF00BF00BF00BF704741F20400C4F2EF
:10056C0002000068C0F381007047D4D441F204014A
:10057C00C4F202010B6841F20022C0F27A02C3F30A
:10058C008103F0B5DFE803F002480D480B6D9B05C5
:10059C0042D5CB6A9B0144BF46F60042C0F2DC2236
:1005AC003AE00B688C6A1F0C002C1CD40C680B688E
:1005BC00A40CC3F341731D0104F00F046E1C0F2C2B
:1005CC00354618BF0225002B18BF3546FB0705EB37
:1005DC00040302D00F68BF0303D540F60012C0F22B
:1005EC003D025A4318E08B6A8C6AC3F3031E8B6A74
:1005FC0040F6001CC0F23D0CC4F30824FD0703F0C8
:10060C00070303D00D68AD0358BF94460CFB04F2EE
:10061C000EFA03F3B2FBF3F202600B6842F24417DA
:10062C00C3F30313C0F60007FB5C42F27C17DA40FD
:10063C0042600B68C0F60007C3F30223FB5C22FA8E
:10064C0003F3C3600B68C3F3C223FB5C0427DA40DB
:10065C0082600B68096807EA9363C1F3813119441E
:10066C0042F26C13C0F60003595CB2FBF1F101616C
:10067C00F0BD41F25401C4F202010A68012822F0D3
:10068C00300208BF30320A607047B0B54EF60C5ECF
:10069C00CEF2000EDEF800304FF0FF35C3F302232C
:1006AC0083F00704042C28BF0424033B05FA04F44C
:1006BC0038BF0023A1434EF2001C994005FA03F306
:1006CC00CEF2000C9A43114300F00F0200EB0C0326
:1006DC000901043A03F540730028724448BF02F143
:1006EC000C03197048BFB0BD00F01F01012202FAC3
:1006FC0001F1C0F342104CF82010B0BD4EF60C5175
:10070C00CEF200010A684FF6FF031A4060F30A228A
:10071C0042F0806040F0FD70086070472DE9F041B8
:10072C0086B001AD04462846984616460F46FFF79C
:10073C001DFF43F6000105F10C00C4F201018C42CF
:10074C0008BF05F1080000684CF6CD4100EB8000B5
:10075C004000B0FBF7F0CCF6CC41A0FB0112D10865
:10076C0001EB8103A0EB43000428A0684FF00103C8
:10077C0088BF03EBD201C1EA0000A060E06806F07C
:10078C00010120F4805040EA0130E060206908F05B
:10079C00030120F4405040EA0130206106B0BDE86E
:1007AC00F081C26801F0010122F4005242EA4131A9
:1007BC00C1607047C26801F0010122F0080242EAF0
:1007CC00C101C1607047C26801F0010122F004024E
:1007DC0042EA8101C160704701F01F034FF0010C28
:1007EC00012A0CFA03F24FEA11410B5814BF23EA09
:1007FC0002021A430A5070476FF35F214160704741
:10080C00406880B270470068084018BF01207047EC
:10081C00CA0602D0016840687047C943016070473E
:10082C00026861F3000202607047C1628262416932
:10083C0041F0010141617047026801F0070122F0AB
:10084C00700242EA0111016070472AB1012A18BFF7
:10085C007047C268114302E0C26822EA0101C1601C
:10086C00704702690A4204D0C06808421CBF0120CC
:10087C00704700207047C9430161704747F200017F
:10088C00C4F200010A6800F0010022F4807242EA0E
:10089C0000200860704770B500286FF0070641D043
:1008AC000D4600293ED040F22C16C2F2000604463A
:1008BC00307830B940F23010C2F2000000F0F7F995
:1008CC003078013030702868002104F13406C4E916
:1008DC000001304600F0F6F920682464606304F1EE
:1008EC00080000F0E4F940F23010C2F2000031468A
:1008FC0000F0ECF9686800281ABF206300266FF03E
:10090C000A0605F10C00A062A96859B1E1620868F9
:10091C0030B18A8822B10021002600F0C0F801E035
:10092C006FF00706304670BDB0B50C466FF007018E
:10093C0060B35CB340F2301CC2F2000CDCF8102047
:10094C000CF108039A420BD0012100BF15688542B7
:10095C0004D0926801319A42F8D11A46C8B201E02B
:10096C0001201A46DCF80010814202D26FF012010D
:10097C000CE0D56835B942F29E10C0F60000722129
:10098C0000F0FEF868680021204368600846B0BD9E
:10099C0028B101464068002208B14A607047002027
:1009AC007047D4D470B50D4600286FF0070145D0C0
:1009BC00002D43D01446002A40D040F23011C2F230
:1009CC0000010A6901F108039A4204D016688642B4
:1009DC0002D09268F8E71A46086868B3D6683EB940
:1009EC0042F29E10C0F600004FF4967100F0C8F869
:1009FC00F069D8B1B08CC8B1708C00BF15F8011B70
:100A0C00F2691154708CB18C0130B0FBF1F202FB25
:100A1C001100328C7084904206D1013293B2B3FB38
:100A2C00F1F303FB11213184013CE7D17068002103
:100A3C0040F00040706001E06FF01201084670BD9C
:100A4C006FF0070C18B311B30AB3B0B5B0F820E0CF
:100A5C00438C4FF0000C9E4517D000BFC36913F8B0
:100A6C000E3001F80C30B0F820E0858C0EF101034B
:100A7C00B3FBF5F40CF1010C04FB153E438CA0F810
:100A8C0020E0734501D09445E8D3BDE8B040604602
:100A9C007047704740F23010C2F2000070470023DC
:100AAC009A4208BF7047C1540133F9E7D0B502AF81
:100ABC0000239A4208BFD0BDCC5CC4540133F8E784
:100ACC0040F24410C2F2000000F0F1B82DE9F04100
:100ADC0040F24410C2F20000056900F10806B5426C
:100AEC0018D042F29F28C0F600080027EC6874B1B9
:100AFC00616821B94046762100F042F861682068AF
:100B0C00884720B904F10C0000F0FDF82772AD689D
:100B1C00B542EBD10020BDE8F081704770477047BB
:100B2C0098B180B5006850B140F22801C2F20001C2
:100B3C00086040F25810C2F2000000F08AF8FFF78B
:100B4C00BFFFBDE88040FFF7A4BF7047B0B5FFF70B
:100B5C00A1FF70B1046900F1080500BFAC4209D0D7
:100B6C00E06830B1816A21B14968006B8847A4689C
:100B7C00F4E7B0BDBDE8B040FFF7A8BFFFF78ABFF0
:100B8C00FEE708B10020704780B542F2B11042F286
:100B9C005B21C0F60000C0F600016A22FFF7BEFF21
:100BAC006FF0130080BD10B558B10446006840B119
:100BBC00FFF7EEFE18B10146204600F010F80020B9
:100BCC0010BD42F2E81042F25B21C0F60000C0F604
:100BDC0000014E22FFF7A2FF6FF0130010BDB0B55D
:100BEC0050B30446406838B30D46C8070FD042F2E4
:100BFC008C1042F25B21C0F60000C0F600013022DE
:100C0C00FFF78CFF616808688A6889889047A80795
:100C1C0058BFB0BD42F2712042F25B21C0F6000019
:100C2C00C0F600013522FFF779FF61680868CA68D1
:100C3C008988BDE8B040104742F2122042F25B2195
:100C4C00C0F60000C0F600012A22BDE8B040FFF754
:100C5C0065BF10B5E0B1D9B1096840F26412C2F2B7
:100C6C000002C0E9002140F23001C2F200014860EC
:100C7C000068FFF710FE0446B0F1FF3F15DC42F2AE
:100C8C005B21C0F6000120469822FFF746FF0CE0DE
:100C9C0042F2C72042F25B21C0F60000C0F6000110
:100CAC008622FFF73BFF6FF01304204610BD4FF078
:100CBC00FF31024642F8081F00214260C0E90322BE
:100CCC0001607047002101617047D4D480B5D1F820
:100CDC0000C01CF1010207D000F1080296465268D0
:100CEC0013686345FAD903E0D0F810E0DEF804206D
:100CFC004A609160C1F808E0CEF804100861016800
:100D0C000131016080BDD0E9012301699360426823
:100D1C005A604A68824201D182684A6000220261AC
:100D2C000868013808600868704740F2AC12C2F2DB
:100D3C000002108840F2440CC2F2000C431CBCF8B8
:100D4C0000005905138008D1411C88B240F6FF728F
:100D5C00801A18BF0846ACF8000010B540F2B41465
:100D6C0001B240F2FF72A0F2FF73C2F20004914292
:100D7C00B8BF131A228899B28A4240F2B011C2F25B
:100D8C00000109684FF0000088BF012088472088C7
:100D9C00411C6FF31F310020218010BD40F2B011B7
:100DAC00C2F20001086070470023036081608280FA
:100DBC0032B1002182685354828801319142F9D3B7
:100DCC000020704780B5B0F800C0B0F804E00CF11A
:100DDC000102B2FBFEF303FB1E2243889A4204BFBE
:100DEC00012080BD826802F80C10018882880131D4
:100DFC00B1FBF2F303FB12110180002080BD0388CC
:100E0C004288934204BF0220704783689A5C0A7040
:100E1C00418882880131B1FBF2F303FB121141804E
:100E2C000020704740F2B811C2F200010860704710
:100E3C00072938BF70472DE9F04F85B005460530BE
:100E4C008A46019000214AF201070726002000BFC4
:100E5C006A5C532A46D16B185A78472A42D19A7841
:100E6C00022A3FD11A798E1806F1070BD34543D8C5
:100E7C00019E31440291895C0491991889790391FE
:100E8C00511D0E064FF6FF761AD05FFA81F84FF01F
:100E9C00000900BF13F809104FF0000C4E4000BFC2
:100EAC0087EA56015FEAC67E08BF71080E46BCF1A0
:100EBC00070F0CF1010CF3D309F10109C145E9D17C
:100ECC00DDE9034141EA0421B14212D140F2B810EC
:100EDC00C2F20000066816B1D8780299B04758469D
:100EEC0008E000BF013016FA80F1514581B2AFD94C
:100EFC0002E001300726F6E705B0BDE8F04F704779
:100F0C002DE9F04740F2BC18C2F200089246D8F81E
:100F1C00002032B10AF107021FFA82F9B9F1800FF1
:100F2C0002D90020BDE8F08740F2C016C2F20006DC
:100F3C0044F253723280022240F08000B270F070A2
:100F4C0086F804A031B1BAF1000F03D0701D5246DF
:100F5C00FFF7ACFD0AF1050C5FFA8CF1C9B14FF645
:100F6C00FF7200234AF20107F05C4240002000BFF0
:100F7C00154687EA5202EC0708BF6A08072800F1F9
:100F8C000100F5D301338B42EED1D0B2C2F3072569
:100F9C0001E0FF20FF2506EB0A07D8F8003006F821
:100FAC000C00012031464A46BD71BDE8F047184798
:100FBC0040F2BC11C2F200010860704780B542F2E9
:100FCC000000C4F2020040F253110160FFF7C2F9B5
:100FDC0000200121FFF714FA0120FFF7EFF9012897
:100FEC00FAD100201D21FFF76EFA02200121FFF734
:100FFC0007FA00BF1920FFF7E1F90128FAD1002008
:10100C00FFF73AFA0020FFF751FA0020FFF741FAF8
:10101C000120FFF72EFB0220FFF782FAFFF79DFA63
:10102C000228FBD10020FFF724FBBDE88040FFF72E
:10103C00BDB82DE9F04F83B00DF104084046FFF721
:10104C005BF90E20C0F218000121FFF7C4F94FF034
:10105C00817A4FF4007B4FF090404146CDF808A0C8
:10106C00CDF804B0FFF70EF94FF4806001904FF00B
:10107C0090404146ADF809B0FFF704F94FF09040AD
:10108C000A210122FFF750F94FF09040092101226B
:10109C00FFF74AF91B2001210222FFF7F6FA44F26E
:1010AC000045C4F2000505F5744420464FF4165172
:1010BC0000220023FFF732FB20460121FFF77AFBC9
:1010CC0020460121FFF77FFB40F20509C0F20C0915
:1010DC00204649460122FFF77FFB20460121FFF7FE
:1010EC0060FB20468021FFF793FB20464021FFF751
:1010FC008FFB20462021FFF78BFB09F101072046CF
:10110C0039460122FFF768FB40F24026C2F2000686
:10111C0040F26421C2F2000130466422FFF744FE23
:10112C0040F2C82106F11000C2F200016422FFF760
:10113C003BFE1120C0F21C0001213462FFF74BF979
:10114C00042001904FF090404146CDF808A0FFF7E5
:10115C0099F8082001904FF090404146ADF809B045
:10116C00FFF790F84FF0904003210122FFF7DCF8D5
:10117C004FF0904002210122FFF7D6F81C200121EC
:10118C000322FFF782FA28464FF4E13100220023B4
:10119C00FFF7C4FA28460121FFF70CFB2846012172
:1011AC00FFF711FB284649460122FFF715FB28469D
:1011BC000121FFF7F6FA28468021FFF729FB284684
:1011CC004021FFF725FB28462021FFF721FB28466D
:1011DC0039460122FFF700FB40F22C34C2F2000426
:1011EC0040F25031C2F2000120466422FFF7DCFDD0
:1011FC0040F2B43104F11000C2F200016422FFF796
:10120C00D3FD022001900020C0F2011002904FF09B
:10121C00904041462562FFF735F803B0BDE8F08FEA
:10122C0010B586B001AC2046142100F0C7F9204659
:10123C00FFF79CF9019944F6D350C1F26200A1FB6F
:10124C0000024FF0FF3000EB921040F22402C2F289
:10125C000002B0F1807F116001D300BFFEE74EF2B7
:10126C001001CEF2000148604EF62350CEF2000081
:10127C00F022027000208860072008604FF0FF30D9
:10128C0002210222FFF701FA012000F001FC06B056
:10129C0010BD10B54FF01C100121FFF79CF8012078
:1012AC00FFF7ECFA0020FFF77CF803200021FFF792
:1012BC00A7F80020FFF7E2FA1124C0F2140420462C
:1012CC000121FFF788F8601C0121FFF784F8601DED
:1012DC000121FFF780F80820C0F21C000121BDE8B5
:1012EC001040FFF778B8B0B582B00020C0F2011002
:1012FC00019041F200406C460125C4F600002146E5
:10130C000095FEF7BFFF4FF4006000904FF0904047
:10131C002146FEF7B7FF4FF4805000904FF09040FD
:10132C002146ADF80550FEF7ADFF02B0B0BD002868
:10133C0041F20040C4F600004FF0010108BFFEF777
:10134C00E9BFFEF7E9BFD4D42DE9F04381B01546CF
:10135C00804640F2184240F24020C2F20002B8F13E
:10136C00000F40F22C39C2F2000008BF0246C2F254
:10137C000009B8F1010F18BF91465DB10E4609F195
:10138C0010070024315D3846FFF71CFD70B901349D
:10139C00A542F7D199F81D00012820D099F80D002D
:1013AC00012805D1012089F81E0018E0254616E019
:1013BC00B8F1010F04D14FF090400221FEF7AAFFC3
:1013CC0009F110000DF10301FFF719FDD9F8200008
:1013DC009DF80310FFF710FA012089F81D00A8B240
:1013EC0001B0BDE8F083D4D470B582B040F218439C
:1013FC0040F22C3440F24022C2F200030028C2F228
:10140C000004C2F2000208BF1346012818BF1C4694
:10141C00607B022821D10D46002600BF20462946BC
:10142C00FFF7EDFC002804BF013501360228F5D189
:10143C00A07F00210128617310D104F110000DF17F
:10144C000701FFF7DCFC48B9206A9DF80710FFF78D
:10145C00D3F90120A4F81D0000E00026B0B202B0C0
:10146C0070BDB0B582B043F60004C4F20104E0686C
:10147C00800612D520462021FFF7C5F968B1204619
:10148C00FFF7BEF940F24025C2F20005C1B2284672
:10149C00FFF798FC4FF48170A881E06840061CD5DA
:1014AC0020464021FFF7AFF9B8B120464021FFF7A5
:1014BC00AFF940F24025C2F2000505F110000DF124
:1014CC000701FFF79CFC08B1002005E09DF8071010
:1014DC002046FFF791F90120687702B0B0BDB0B596
:1014EC0082B044F20044C4F20004E068800612D5D5
:1014FC0020462021FFF787F968B12046FFF780F9D5
:10150C0040F22C35C2F20005C1B22846FFF75AFC56
:10151C004FF48170A881E068400622D52046402116
:10152C00FFF771F9E8B120464021FFF771F940F25D
:10153C002C35C2F2000505F110000DF10701FFF783
:10154C005EFC38B1002068774FF090400221FEF726
:10155C00E3FE06E09DF807102046FFF74DF9012049
:10156C00687702B0B0BD40F24020C2F20000417B6F
:10157C00012918BF7047017B11B101390173704704
:10158C0002214173704740F22C30C2F20000417BC3
:10159C00012918BF7047017B11B1013901737047E4
:1015AC0002214173704780B5FFF773FEFFF79BFE76
:1015BC00FFF736FEBDE88040FFF73BBD0A46002131
:1015CC00FFF76DBAB0B582B0102000900020C0F2C9
:1015DC0001106C4601904FF090402146FEF752FEF0
:1015EC0040F200450420C4F6000500902846214630
:1015FC00FEF748FE0220009028462146FEF742FEE8
:10160C000120009028462146FEF73CFE4FF48060F6
:10161C00009028462146FEF735FE802000904FF0C2
:10162C0090402146FEF72EFE402000904FF0904057
:10163C002146FEF727FE02B0B0BD10B588B003AC52
:10164C0020461421FFF7BAFF2046FEF78FFF20201B
:10165C0001900020C0F20110029001A94FF09040BF
:10166C00FEF710FE0B20C0F218000121FEF7B3FEAE
:10167C0042F60044C4F201042046182142F6DF620F
:10168C00FFF7D3F820460021FFF7D6F820460121BA
:10169C000122FFF7DAF80320FFF730F80D200021C4
:1016AC000022FEF7F2FF08B010BD421E4FF0904032
:1016BC004FF0100118BF0122FEF730BE80F001027E
:1016CC0040F20040C4F600004FF48061FEF726BEE5
:1016DC00072888BF70478F21C140C90723D070B538
:1016EC0042F28411C0F600010A5C42F26411C0F6A9
:1016FC0000010C5C42F2741140F20046C0F600018D
:10170C00C4F600060D5C30460421FEF707FE304699
:10171C0002212246FEF702FE304601212A46BDE890
:10172C007040FEF7FBBD704780B5FFF74BFFFFF72E
:10173C0084FF40F20040C4F600004FF480610122A7
:10174C00FEF7ECFD0720FFF7C3FF4FF09040402160
:10175C000122FEF7E3FD4FF0904080210022FEF7BE
:10176C00DDFD642000F0CEF94FF090408021012285
:10177C00FEF7D4FD42F60040C4F201000121FFF750
:10178C004FF84FF0904020210022BDE88040FEF73A
:10179C00C5BDB0B542F60044C4F201042046012197
:1017AC00FFF75FF898B140F24605C2F200052A78BF
:1017BC004FF090402021FEF7B1FD2878012180F0F8
:1017CC00010220462A70BDE8B040FFF754B8B0BD06
:1017DC0070B582B040200090002040F20044C0F26E
:1017EC000110C4F600046D46019020462946FEF710
:1017FC0049FD2020009020462946FEF743FD10208D
:10180C00009020462946FEF73DFD0126204629463C
:10181C008DF80760FEF736FD8020009020462946A3
:10182C00ADF80560FEF72EFD4FF4004000904FF030
:10183C0090402946FEF726FD0820009020462946B8
:10184C00FEF720FD02B070BDF0B581B040F200454E
:10185C0004460026C4F60005002700BFE0B2C2090A
:10186C0028461021FEF75AFD28462021002264004C
:10187C00FEF754FD28462021012200BF00BF00BF07
:10188C0000BFFEF74BFD28460821FEF73CFD002863
:10189C0018BF012040EA4707072E06F1010600BFDA
:1018AC0000BF00BF00BFD9D3F8B201B0F0BD70B516
:1018BC0040F20046C4F600060C4605463046402170
:1018CC000022FEF72BFD05F07F00FFF7BDFF204641
:1018DC00FFF7BAFF304640210122BDE87040FEF709
:1018EC001DBDB0B540F20045C4F6000504462846BF
:1018FC0040210022FEF712FD44F08000FFF7A4FF08
:10190C000020FFF7A1FF0446284640210122FEF7E4
:10191C0005FD2046B0BD80B5FFF75AFF0F20FFF73D
:10192C00E0FF6A281CBF002080BD10206C21FFF74F
:10193C00BEFF11206C21FFF7BAFF012080BDD4D46B
:10194C002DE9F04184B040F20048C4F600080C4682
:10195C0005464046402100220027FEF7DFFCA2206E
:10196C00FFF772FF01AE00BF0020FFF76DFFF055CF
:10197C0001370C2FF8D1404640210122FEF7CEFC56
:10198C00BDF80A00BDF80C1000BA000C288008BA8B
:10199C00BDF80E10000C688008BABDF80410000CDD
:1019AC00A88008BABDF80610000C208008BABDF853
:1019BC000810000C608008BA000CA08004B0BDE8D0
:1019CC00F0817047B0B500F0D6F84DF68361C4F2E3
:1019DC001B31A0FB011244F6D351C1F26201A0FBF2
:1019EC000101900C40F24C02C2F200021060880916
:1019FC0040F24801C2F200010860EFF3108472B6A5
:101A0C0000F017F840F24045C2F20005C5E90001AC
:101A1C00BFF34F8FBFF36F8F00F00BF8D5E90012B7
:101A2C00401A40F23C41C2F20001086084F3108875
:101A3C00B0BD70B5EFF3108672B600F0B1F8054684
:101A4C000C4600F09EF850B100F0AAF804460D4682
:101A5C0000F09FF800196941451C41F1000440F267
:101A6C004840C2F20000D0E9000140F26042C2F2EC
:101A7C0000024019D2E900356141C31A71EB05032C
:101A8C00ACBFC2E90001D2E9000186F3108870BD39
:101A9C00B0B5EFF3108572B600F059F8044600F0BB
:101AAC008BF885F31088FFF78DFF40F24840C2F2A7
:101ABC0000000021C0E9001140F25040C2F20000C9
:101ACC00C0E9001140F25840C2F20000C0E9001118
:101ADC0040F26040C2F20000C0E9001140F26840E0
:101AEC00C2F20000C0E9001140F27040C2F20000E6
:101AFC00C0E90011FFF765FF2046B0BD0120FFF7DC
:101B0C00C7BFD4D440F2480140F23C42C2F20001BB
:101B1C00C2F2000209681368A1FB00105B2BACBF7A
:101B2C0012685A22B0B5D317551A8341A8BFB0BD5D
:101B3C008C1A60EBE275FFF77CFF24184D4100BF57
:101B4C00FFF777FF001B71EB0500F9DBB0BD80B927
:101B5C004EF21001CEF2000100226FF07F43EFF342
:101B6C00108072B60A604B608A6007220A6080F3AC
:101B7C0010880120704740F22400C2F20000006877
:101B8C0070474EF60450CEF200000068C0F380603F
:101B9C0070474EF21400CEF200000068002170472E
:101BAC004EF21400CEF2000001684068081A4FF0A3
:101BBC00000161F1000170474EF60450CEF20000B6
:101BCC004FF0007101607047F0B581B042F2E82728
:101BDC00C0F6000740F278453A69C2F20005B989AF
:101BEC002E7804461046FEF78EFB864213D040F248
:101BFC007946C2F2000630780130C1B20629307045
:101C0C0009D33869B989FEF77EFB287008B9002022
:101C1C00207500203070002001B0F0BDB0B588B048
:101C2C0050B304460068FEF7B3FE00060AD5214601
:101C3C0011F8140F0122D52846F2044008BF1822CF
:101C4C00FEF7B0FE2269207A6D4629469047062899
:101C5C0010D39DF8001020290CD1284410F8010C49
:101C6C00032807D19DF802109DF803302A1D204649
:101C7C0000F05CF800200CE042F2B72042F2C911EF
:101C8C00C0F60000C0F60001F322FEF747FF6FF02C
:101C9C00130008B0B0BDD4D42DE9F04389B00DF1D8
:101CAC00040808F104050E46814628461C211C46F2
:101CBC001746FFF783FC99F8041020208DF80400D8
:101CCC008DF805108DF806608DF8074047B13CB1D2
:101CDC00204600BF17F8011B013805F8011BF9D18C
:101CEC00E11C08060CD008F10100CAB2002100BFAB
:101CFC0010F8013B013A81EA0301F9D1C84300E035
:101D0C00FF2004EB0801087103204871D9F80C304E
:101D1C0099F80800A21D414698470021002808BFE9
:101D2C006FF01301084609B0BDE8F0832DE9F047C8
:101D3C0082B098461546044600205229ADF806009C
:101D4C00CDF8020026D0C1BB2878442822D168786F
:101D5C0000BB42F23C2942F2C91AAF1C0026C0F665
:101D6C000009C0F6000A00BFB95DA01941754846CC
:101D7C005246BB23FEF7D3FE0136072EF4D10026C4
:101D8C000DF101022046522101238DF80160FFF76D
:101D9C0083FF2675B8F1110F0DD104F11C00002141
:101DAC006A182B78527800EB83035A5401311029AE
:101DBC00F6D1D52000E00020207502B0BDE8F087F8
:101DCC00A0B199B10246486810610868D0608B6870
:101DDC0040F27C4040F25001C2F20000C2F200011D
:101DEC0010604A6010689360FEF755BD80B542F2F2
:101DFC00C72042F2C911C0F60000C0F6000140F243
:101E0C004F12FEF78BFE6FF0130080BD0020704761
:101E1C00B0B504460068FEF7BBFD40F2C445A268AD
:101E2C00207BC2F200052946904790B10146284616
:101E3C00FEF7FEFF28780B38C0B2032809D842F20F
:101E4C005411C0F6000151F8201046F20240FEF782
:101E5C006BFD206840F2C444C2F2000421466422A7
:101E6C00FEF7EEFD82B2182A03D0012A08D1002019
:101E7C00207040F2C441C2F200010220FFF740F88A
:101E8C000020B0BD022811D0012818BF704780B5C2
:101E9C0088B000208DF802000DF102010120012212
:101EAC00FFF72EF808B0BDE88040704746F20140BD
:101EBC008021FEF739BD70B5044641F69160C0F63D
:101ECC0000000D46FEF7AEFF40F22850C2F20000B3
:101EDC002060E86840F26401C2F200014C6058B125
:101EEC00298A49B12168C861288A216888842068B8
:101EFC000021418420680184206840F26401C2F210
:101F0C000001FEF7C8FC696800291ABF0646A160EB
:101F1C006FF00A06286808B1606002E060686FF034
:101F2C000A06A968E160FFF743F8304670BD40F23D
:101F3C007051C2F200010A8883889A4201D20132A0
:101F4C0004E0827942F001028271002200200A80B2
:101F5C00704710B590B104460068FEF719FDA079E2
:101F6C00C00709D004F1080004F10E01FFF7E8FCEA
:101F7C00A07900F0FE00A071002010BD42F2B72045
:101F8C0042F2D711C0F60000C0F600017922FEF72C
:101F9C00C5FD6FF0130010BD10B5D0B1C9B104462A
:101FAC0008884FF47A71B1FBF0F0A080FFF7B3FC16
:101FBC00012818D140F2745040F27801C2F20000AE
:101FCC00C2F2000120604C602068BDE81040FEF7B2
:101FDC0062BC42F2C72042F2D711C0F60000C0F634
:101FEC000001C92208E042F2832042F2D711C0F668
:101FFC000000C0F60001D122FEF790FD6FF0130037
:10200C0010BD0020704710B5D0B10068FEF7C0FCC1
:10201C00A0B10446000702D50120FFF74FFBE006F4
:10202C0002D50020FFF74AFBA00602D50020FFF7DF
:10203C003CFB600602D50120FFF737FB002010BDEA
:10204C0042F2B72042F24921C0F60000C0F600016E
:10205C009C22FEF763FD6FF0130010BD10B590B11C
:10206C0089B10446FFF760FB40F2BC5040F28C0192
:10207C00C2F20000C2F2000120604C602068BDE892
:10208C001040FEF708BC42F2C72042F24921C0F6CC
:10209C000000C0F60001DD22FEF740FD6FF01300DA
:1020AC0010BDD4D4002103E00B4B5B584350091DE9
:1020BC000A480B4B42189A42F6D30A4A02E0002314
:1020CC0042F8043B084B9A42F9D3FEF741F800F072
:1020DC000FF8FDF7F5FF70471423000800000020EF
:1020EC00A0000020A000002004060020FEE7D4D4AD
:1020FC00B0B502AF0B4C0C48001B85101DB101CCC8
:10210C008047013DFAE7094808B100F000F8084C97
:10211C000848001B85101DB101CC8047013DFAE732
:10212C00B0BD00BF10230008102300080000000001
:08213C00102300081423000821
:102144000000000000000000010203040607080963
:102154000800000010000000200000004000000003
:10216400000001010000000102040608020C08102E
:102174000000000000000001000000000102030450
:102184000001000100000001676574204576656E5A
:10219400745F53746F72616765002E2E2F2E2E2F7D
:1021A400676D73692F67626173652E630045727290
:1021B4006F723A20707454686973206973204E55A5
:1021C4004C4C2E0A006F626A6563742F72666964F0
:1021D4002E63006F626A6563742F6C736D3664736B
:1021E4006C2E63004572726F723A20707454686981
:1021F40073206F72207074546869732D3E7074423A
:10220400617365206973204E554C4C2E0A0045724B
:10221400726F723A20707454686973206F72207000
:1022240074546869732D3E707444617461206973D9
:10223400204E554C4C2E0A00706368446174615BF7
:10224400692B325D006F626A6563742F7374657005
:10225400343938382E63002E2E2F2E2E2F676D73AF
:10226400692F6773746F726167652E6300676574A5
:10227400204576656E745F476574446174610045FA
:1022840072726F723A204C534D3644534C5F496E10
:102294006974206661696C65642E002E2E2F2E2EC3
:1022A4002F676D73692F67636F726F7574696E65DD
:1022B4002E6300707454686973206973204E554C02
:1022C4004C2E004572726F723A20707454686973B0
:1022D400206F72207074436667206973204E554CDA
:1022E4004C2E000000080000000000480000000020
:0C22F40000100000000000480000000086
:10230000CCDDFF7F010000003CFEFF7F01000000EC
:04231000091B00089D
:1023140055130008F5130008000000003200000007
:1023240055130008F513000801000000A000002068
:102334003200000000127A000000000060EA000091
:102344000109000000000000000000008F0B0008DD
:10235400B30B0008FF0701000100000001000000AA
:10236400016400000000000000000000D51B00080C
:10237400291C0008046400000000000000000000A4
:10238400191E00081D1E0008036400000000000060
:10239400000000003B1F00085F1F000802640000EB
:1023A40000000000000000000F20000813200008B7
:020000042000DA
:1006040000000000000000000000000000000000E6
:1006140000000000000000000000000000000000D6
:1006240000000000000000000000000000000000C6
:1006340000000000000000000000000000000000B6
:040C040000000000EC
:04000005080020B11E
:00000001FF
