:020000040800F2
:1000000000800020F10600083907000839070008C1
:100010003907000839070008390700080000000008
:100020000000000000000000000000003907000888
:1000300039070008000000003907000839070008E8
:100040003907000839070008390700083907000890
:100050003907000839070008390700083907000880
:100060003907000839070008390700083907000870
:100070003907000839070008390700083907000860
:100080003907000839070008390700083907000850
:100090003907000839070008390700083907000840
:1000A0003907000839070008390700083907000830
:1000B0003907000839070008390700083907000820
:1000C0003907000839070008390700083907000810
:1000D0003907000839070008390700083907000800
:1000E00039070008390700083907000839070008F0
:1000F0003907000839070008390700080000000028
:10010000000000003907000839070008000000005F
:10011000390700083907000800000000000000004F
:1001200039070008390700083907000839070008AF
:1001300000000000000000000000000000000000BF
:1001400000000000000000000000000000000000AF
:10015000390700083907000839070008390700087F
:10016000390700083907000839070008390700086F
:1001700080B582B00020019040F21C00C2F2000065
:1001800000F048F9FFE7FEE74EF68851CEF2000195
:10019000086840F47000086041F20001C4F20201F6
:1001A000086840F001000860FFE741F20000C4F277
:1001B00002000068C0F34000012801D0FFE7F4E727
:1001C00041F20401C4F20201086820F00300086053
:1001D000FFE741F20400C4F20200006880088007D3
:1001E00008B1FFE7F5E741F20001C4F20201086837
:1001F0004FF6FF72CFF6F2621040086041F2040140
:10020000C4F202010020086041F23001C4F2020190
:10021000086041F20801C4F202014FF41F000860B7
:100220004EF60851CEF200014FF0006008607047B2
:1002300080B584B00290019100200090029818B11E
:10024000FFE7019820B9FFE76FF00700039056E041
:1002500040F22000C2F20000007838B9FFE740F217
:100260002400C2F2000000F0EDF9FFE740F22001A7
:10027000C2F2000108780130087001980068029904
:1002800008600299002048600298343000F0F2F9CA
:10029000029908684863029800640298083000F0E8
:1002A000D1F9029800F1340140F22400C2F20000BA
:1002B00000F0E8F90198406828B1FFE7019840682C
:1002C0000299086303E06FF00A000090FFE70198CD
:1002D0000C30029988620198806868B1FFE7029843
:1002E0000199896800F00EF80090009818B1FFE7B6
:1002F0000098039003E0FFE700980390FFE703985E
:1003000004B080BD80B584B002900191029818B10C
:10031000FFE7019820B9FFE76FF0070003901CE0AA
:1003200001980299C8620198006878B1FFE70198C6
:10033000808801280ADBFFE7019800680090009898
:1003400001998A88002100F03BF803E06FF0070074
:10035000039002E000200390FFE7039804B080BD03
:1003600083B00190019818B9FFE7002002900CE0DB
:10037000019840680090009820B1FFE701990020A3
:100380004860FFE700980290FFE7029803B07047CB
:1003900081B040F22400C2F2000000690090FFE743
:1003A000009840F22401C2F200010831884205D0D1
:1003B000FFE7FFE7009880680090F1E701B0704721
:1003C00000239A4208BF7047C1540133F9E7D4D4DF
:1003D00080B540F23800C2F2000000F033F980BD71
:1003E00084B0039002910192162000900398009926
:1003F000884205D2FFE70398B0F1FF3F01DCFFE739
:1004000000E0FFE704B0704783B0029001910092D2
:1004100003B0704780B582B00190019808B9FFE73A
:1004200019E00198006888B1FFE70198006840F280
:100430000001C2F20001086040F24C00C2F200006C
:1004400000F0A2F808B1FFE7FFE7FFE7FFF7C0FF02
:10045000FFF79EFFFFE702B080BDD4D480B584B023
:10046000029002980190019878B9FFE740F29670E7
:10047000C0F6000040F62101C0F600016A22FFF735
:10048000C3FF6FF01300039002E000200390FFE72A
:10049000039804B080BDD4D480B586B00490002009
:1004A000039004980190019820B1FFE7019800683B
:1004B00078B9FFE740F2AE70C0F6000040F62101C7
:1004C000C0F600014E22FFF79FFF6FF0130005906A
:1004D0000FE001980068FFF743FF0290029828B1EF
:1004E000FFE70198029900F007F8FFE703980590ED
:1004F000FFE7059806B080BD80B582B001900091FD
:10050000019820B1FFE70198406860B9FFE740F229
:10051000D870C0F6000040F62101C0F600012A2282
:10052000FFF772FF2EE09DF80000C00790B1FFE7D3
:1005300040F28470C0F6000040F62101C0F60001D0
:100540003022FFF761FF0198416808688A6889884E
:100550009047FFE79DF800008007002812D5FFE7CD
:1005600040F63700C0F6000040F62101C0F6000159
:100570003522FFF749FF019841680868CA688988F1
:100580009047FFE702B080BD80B586B0049003912C
:10059000002002900498019003980090019818B1EF
:1005A000FFE7009878B9FFE740F64900C0F6000081
:1005B00040F62101C0F600018622FFF725FF6FF00B
:1005C000130005903BE0009800680199486001998C
:1005D00040F25800C2F2000008600198006878B943
:1005E000FFE740F60200C0F6000040F62101C0F629
:1005F00000018F22FFF708FF6FF0130005901EE047
:10060000049840F20801C2F20001486001980068B5
:10061000FFF70EFE02900298B0F1FF3F0BDCFFE700
:10062000029840F62101C0F600019822FFF7D8FE9B
:100630000298059003E0FFE702980590FFE7059810
:1006400006B080BD81B00090009901F108004860BB
:1006500000994FF0FF308860009901F10800C860F0
:10066000009901F10800086100990020086001B0BC
:100670007047D4D481B0009000990020086101B087
:100680007047D4D484B0039002910298006800901F
:100690000098013020B9FFE703980069019010E04D
:1006A000039808300190FFE70198406800680099BE
:1006B000884205D8FFE7FFE7019840680190F3E71B
:1006C000FFE7019840680299486002984168886095
:1006D00001980299886002980199486003980299EC
:1006E0000861039908680130086004B07047D4D4E9
:1006F000002103E00B4B5B584350091D0A480B4B8C
:1007000042189A42F6D30A4A02E0002342F8043B18
:10071000084B9A42F9D3FFF737FD00F00FF8FFF7C7
:1007200027FD70477C080008000000201C00002006
:100730001C000020A0000020FEE7D4D4B0B502AF1A
:100740000B4C0C48001B85101DB101CC8047013DAE
:10075000FAE7094808B100F000F8084C0848001B07
:1007600085101DB101CC8047013DFAE7B0BD00BF47
:100770007C0800087C080008000000007C080008D5
:040780007C080008E9
:10078400676574204576656E745F53746F72616734
:1007940065004572726F723A2070745468697320F0
:1007A4006973204E554C4C2E0A004572726F723A92
:1007B40020707454686973206F722070745468696F
:1007C400732D3E707442617365206973204E554CDD
:1007D4004C2E0A004572726F723A20707454686924
:1007E40073206F72207074546869732D3E70744462
:1007F400617461206973204E554C4C2E0A00457279
:10080400726F723A207074546869732D3E7074422A
:10081400617365206973204E554C4C2E002E2E2F8B
:100824002E2E2F676D73692F6773746F72616765FE
:100834002E6300676574204576656E745F47657442
:1008440044617461004572726F723A207074546826
:100854006973206F72207074436667206973204E39
:08086400554C4C2E0000000071
:10086C0004F9FF7F0100000010FFFF7F0100000072
:10087C000000000060EA0000010900000000000018
:0C088C00000000005D0400089904000852
:020000042000DA
:1000A0000000000000000000000000000000000050
:1000B0000000000000000000000000000000000040
:1000C0000000000000000000000000000000000030
:1000D0000000000000000000000000000000000020
:04000005080006F1F8
:00000001FF
