:020000040800F2
:1000000000800020A9820008290300082D030008B1
:100010003103000835030008390300080000000020
:100020000000000000000000000000003D03000888
:1000300041030008000000004503000861130008A8
:10004000F1820008F1820008F1820008F1820008C4
:10005000F1820008F1820008F1820008F1820008B4
:10006000F1820008F1820008F1820008F1820008A4
:10007000F1820008F1820008F1820008F182000894
:10008000F1820008F182000879120008F18200086C
:10009000F1820008F1820008F1820008F182000874
:1000A00035120008FD0C0008DD120008F18200087E
:1000B000F1820008F1820008F1820008F182000854
:1000C000F1820008F1820008F1820008F182000844
:1000D000F1820008F14E0008F1820008F182000868
:1000E00085190008F1820008F1820008F1820008F9
:1000F000F1820008F1820008F1820008000000008F
:1001000000000000F1820008F182000800000000F9
:10011000F1820008F18200080000000000000000E9
:10012000F1820008F1820008F1820008F1820008E3
:1001300000000000000000000000000000000000BF
:1001400000000000000000000000000000000000AF
:10015000F1820008F1820008F1820008F1820008B3
:10016000F1820008F1820008F1820008F1820008A3
:1001700010B541EC100B43EC112B0AF0DFFB00280B
:1001800001D0002010BD012010BD00BF10B541EC12
:10019000100B43EC112B0AF0D1FB002801DB0020EF
:1001A00010BD012010BD00BF10B541EC100B43EC99
:1001B000112B0AF0C3FB002801DD002010BD012037
:1001C00010BD00BF10B541EC100B43EC112B0AF031
:1001D000EDFB002801DA002010BD012010BD00BF9A
:1001E00010B541EC100B43EC112B0AF0DFFB00289B
:1001F00001DC002010BD012010BDD4D47047D4D440
:1002000080B582B00020019000F04EF8FFF7F6FFB5
:1002100004F034F804F07EF800F032FC00F0D0FC7A
:1002200000F092F800F0EEF900F0F4FA00F0B8F8FF
:1002300000F098FB00F032FD40F27450C2F2000072
:1002400002F0C8F940F2D840C2F2000000F0ACFB66
:1002500004F096FD04F00EFE07F05EFF4FF4FA7016
:1002600004F074F807F06CFF07F022FF08F082F842
:10027000014640F2FE60C2F200000170007808F012
:100280007FF840F2B261C2F20001087007F0B8FDD9
:1002900000F0B8FC40F28850C2F2000003F022FEE9
:1002A000FFE703F049FEFCE780B584B001F09CFF56
:1002B0000121084602F05AF8FFE701F0FBFF08B9F8
:1002C000FFE7FAE70220029031210122039202F0B7
:1002D000F7F80298039902F049F8FFE7192001F0B6
:1002E000C9FF012801D0FFE7F8E7002002F092F8EB
:1002F0000420019002F0B6F8019802F09FF8012066
:1003000002F04CFA022002F039F9FFE702F05AF944
:10031000022801D0FFE7F9E7002002F03FFA01F0E0
:10032000B9FB04B080BDD4D47047D4D4FFE7FEE756
:10033000FFE7FEE7FFE7FEE7FFE7FEE77047D4D4FD
:100340007047D4D47047D4D480B582B0032003F072
:100350001BF8182000220192114602F083FF019A37
:100360001920022102F07EFF019A1220012102F0E1
:1003700079FF019A1A20042102F074FF019A4FF0CC
:10038000FF30052102F06EFF019A2820072102F0BC
:1003900069FF019A2520082102F064FF02B080BDA8
:1003A00080B594B000200B9013901290CDF83B00D4
:1003B0000E900B20C0F2180001210D9101F0ACFF4E
:1003C0000D990220C0F21800019001F0A5FF0198DC
:1003D0000D9901F0A1FF01980D9901F09DFF0D9974
:1003E0000320C0F21800009001F096FF00980D99CC
:1003F00001F092FF00980D9901F08EFF00980D9981
:1004000001F08AFF01980D9901F086FF12A804906F
:1004100002F03EFE04990B9A0D9808238DF84E3099
:100420008DF84C2028228DF84D208DF84F004FF488
:100430008070129040F60000C4F20100039002F0B8
:1004400087FD039804994FF40072129202F080FD28
:10045000039804994FF48062129202F079FD049996
:1004600018208DF84D004FF40050129040F60040D7
:10047000C4F20100029002F06BFD029804994FF45F
:100480008042129202F064FD029804994FF40042F7
:10049000129202F05DFD029804994FF4805212927C
:1004A000042206928DF84D2002F052FD0398049923
:1004B000069A4FF4006312938DF84D2002F048FD28
:1004C0000D9942F60040C4F201000C9003F00CF8C4
:1004D0000B9A0C9841F66A0102F0D0FF0C980221A9
:1004E0000A9102F0EFFF0A990C9802F0D9FF0B99DC
:1004F0000C9840F63542059203F0FAF8059A0A99ED
:100500000C9803F0F5F8059A06990C9803F0F0F8AA
:100510000DF14100079002F089FF079A0B990C98A2
:100520000D9B4FF0060CCDF820C08DF841C08DF822
:1005300046308DF844108DF842108DF847308DF814
:1005400045308DF8433002F0DDFF079A0A990C9888
:1005500002F0D8FF0699079A0C9802F0D3FF0B9986
:100560000C980D9A03F0EEF80A990C980D9A03F086
:10057000E9F806990C980D9A03F0E4F8079A08999F
:100580000C988DF8411002F0BDFF08990C9841F6C7
:10059000690203F0ADF80EA8099002F05BFF09991B
:1005A0000B9A0C980D9B8DF83E308DF83B204FF048
:1005B0000F0C8DF838C08DF83D308DF83C308DF83B
:1005C00039208DF83A2003F0E7F90A990C9803F0E6
:1005D0007FF90C98912103F0C3F90C980D9A1146FC
:1005E00003F088F90C980D9A802103F083F90B9998
:1005F0000C9803F0F1F80C980D9903F0BBF914B0C6
:1006000080BDD4D480B598B000200C90179016907F
:100610000320089001F03AFF0920C0F218000121E0
:100620000F9101F079FE0F994FF4A01001F074FEC4
:100630000F990220C0F21800019001F06DFE0F9991
:100640000320C0F2180001F067FE0F990420C0F2E9
:100650001800009001F060FE00980F9901F05CFE18
:1006600001980F9901F058FE01980F9901F054FE7E
:1006700001980F9901F050FE16A8049002F008FDB1
:10068000049908988DF85E00042009908DF85C00AC
:100690008DF85D001020169040F60000C4F20100B5
:1006A000039002F055FC049902200790169040F642
:1006B0000040C4F2010002F04BFC04990F98169020
:1006C00041F20000C4F20100029002F041FC0298E5
:1006D00004990822169202F03BFC03980499202208
:1006E000169202F035FC039804994022169202F00B
:1006F0002FFC039804998022169202F029FC08200E
:10070000C4F20200069002F065F810A8059002F00D
:100710007FF905990698079BDDF830C00F9A4FF0D6
:10072000070ECDF834E0ADF84AE0ADF848C040F22D
:100730008C5EC2F2000ECDF844E08DF84F208DF8AB
:100740004D2042F24C4EC4F2010ECDF840E08DF83F
:100750004E208DF84CC08DF851308DF8502002F0AD
:1007600071F90F9A0020C4F20200114602F0BEF89F
:1007700006980F9902F0ACF80C9801F05BFA0C990E
:100780000D980F9A8DF854208DF855108DF856104D
:100790008DF8570042F20040C4F201000E9015A9F6
:1007A00001F05CFA0C9B0E980F9A05210A9101F05A
:1007B000F3FA079A0C9B0E9806210B9101F0ECFAC4
:1007C000089A0C9B0D990E9801F0E6FA099A0C9B79
:1007D0000E98114601F0E0FA0A9A0C9B0E98092136
:1007E00001F0DAFA0B9A0C9B0E980A2101F0D4FA68
:1007F0000C9B0D9A0E980D2101F0CEFA0D990E98D2
:100800000F9A01F01BFC0E980F9901F059FA18B0DD
:1008100080BDD4D480B58EB0002008900D900C908F
:100820000320079001F032FE0920C0F218000121D8
:100830000A9101F071FD0A990220C0F2180002909D
:1008400001F06AFD02980A9901F066FD02980A9982
:1008500001F062FD0CA8059002F01AFC0599079AB8
:100860000A988DF83620042203928DF834208DF8F2
:1008700035200C9040F60000C4F20100049002F014
:1008800067FB04980599022206920C9202F060FB25
:10089000039A049805990C9202F05AFB089801F00B
:1008A000C9F908980A998DF82C108DF82D008DF84B
:1008B0002E0007208DF82F0042F20040C4F2010004
:1008C00009900BA901F0CAF90799099801F016FBE4
:1008D000089B09980A9A194601F022FB069A089B80
:1008E00009980A9901F01CFB0699079A089B099838
:1008F00001F016FB09980A9A114601F0D9FB42F261
:100900000840C4F20100006800F00100012826D070
:10091000FFE742F20040C4F201000190012101F022
:100920007BF9019801F0FCF9FFE742F20040C4F2C4
:10093000010001F0FFF908B1FFE7F6E742F20040DD
:10094000C4F2010001F00AFAFFE742F20040C4F2EB
:10095000010001F00DFA08B1FFE7F6E7FFE70EB07E
:1009600080BDD4D480B582B01520C0F2180001211A
:10097000019101F0D1FC45F20040C4F20100009069
:1009800040F2E731C72202F079FD0098002102F021
:1009900099FD0098019A114602F0ACFF0098019968
:1009A00002F036FD02B080BD80B588B00790079890
:1009B00040680121049101F0AFFC04990798806818
:1009C00001F0AAFC04990798C06801F0A5FC05A8ED
:1009D000029002F05DFB029904988DF81B00002044
:1009E00003908DF8180008208DF81A0007984069C8
:1009F0000590042001908DF819000798006902F015
:100A0000A7FA01980299039A8DF818008DF81A2018
:100A1000079AD26905928DF819000798806902F04B
:100A200097FA04990798006A02F062FB039B079803
:100A30000168806A1A4602F0FFFF04990798806AED
:100A400003F074F804990798806A03F081F8049918
:100A50000798806A03F0B2F804990798806A03F057
:100A6000BFF8049A0798806A0421C0F20C0103F0D1
:100A700081F804990798806A03F046F808B080BDB1
:100A800080B58AB00220C0F218000121019101F066
:100A900043FC01984FF4805102910591002103918C
:100AA0008DF81A1004218DF8181018218DF81910DE
:100AB0008DF81B0040F60000C4F2010005A902F009
:100AC00047FA01994FF4C01001F026FC03980C215D
:100AD00002F05AFB07A8049002F014F8019B029A56
:100AE000039904988DF825308DF81C1008928DF824
:100AF000241002F015F80AB080BDD4D480B586B0B9
:100B00000420C0F2180000900121019101F004FCC2
:100B10000098019901F000FC0098019901F0FCFB9C
:100B200001990320C0F2180001F0F6FB04A803901D
:100B300002F0AEFA019803998DF8170000208DF8A5
:100B4000140010208DF8160004208DF815004FF4C5
:100B50000050049041F20000C4F20100029002F043
:100B6000F7F9029803994FF48042049202F0F0F9E9
:100B7000029803994FF40042049202F0E9F90399B4
:100B80004FF40070049040F60040C4F2010002F0FF
:100B9000DFF906B080BDD4D482B00190ADF8021068
:100BA000BDF802000199486102B0704782B001901F
:100BB000ADF80210BDF802000199086102B070475B
:100BC00080B582B0FFF79AFF41F20000C4F2010045
:100BD00001904FF40051FFF7E9FF01984FF4804175
:100BE000FFF7E4FF01984FF40041FFF7DFFF40F605
:100BF0000040C4F201004FF40071FFF7D7FF02B0CC
:100C000080BDD4D480B588B000208DF81F00FFE7E8
:100C10009DF81F0002283FDCFFE741F20000C4F20C
:100C2000010002904FF400510091FFF7B5FF0298C8
:100C30004FF480410191FFF7AFFF02984FF400415C
:100C40000391FFF7A9FF40F60040C4F201000490B1
:100C50004FF400710591FFF79FFF4FF4FA70069073
:100C600003F074FB00990298FFF7A0FF0199029826
:100C7000FFF79CFF02980399FFF798FF04980599E6
:100C8000FFF794FF069803F061FBFFE79DF81F0054
:100C900001308DF81F00BBE708B080BD80B586B07D
:100CA0000720C0F2180000900121019101F034FBEF
:100CB0000098019901F030FB04A8039002F0E8F9D4
:100CC000019803998DF8170004208DF81400002274
:100CD0008DF816208DF815004020049041F6004054
:100CE000C4F20100029002F033F9029803998022C5
:100CF000049202F02DF906B080BDD4D480B592B034
:100D000042F60040C4F20100012102F011FE002869
:100D100000F08D82FFE742F60040C4F2010001219D
:100D200002F01EFE07F088FA40F23820C2F20000FE
:100D300090F83D00012811D1FFE740F23820C2F2BF
:100D4000000090F83C00012807D1FFE740F238206E
:100D5000C2F2000008F07CF8FFE7FFE740F2B06065
:100D6000C2F20000007840F2B161C2F200010978DD
:100D7000084200F03282FFE740F23860C2F2000021
:100D8000007800286FD1FFE740F22800C2F200008F
:100D90000F9040F23A61C2F200010C9103F090FB17
:100DA0000C98018840F20C70C2F200000180B0F98A
:100DB000000003F005FB119040F29C51C2F20001CB
:100DC0000E911198086040F24C01C2F200010D91A1
:100DD00001F10A00163103F007FB0D980E9903F09C
:100DE0001BFB0F98B0F90400002807D4FFE740F27E
:100DF0000841C2F200010120087506E040F20841F6
:100E0000C2F20001FF200875FFE740F21820C2F28D
:100E10000000099003F092FF099940F22040C2F2CD
:100E200000000A9007F092FD01460A988186C16B86
:100E300040F20020C2F2000003F00AFE0A990864A2
:100E400040F22800C2F200000B9007F0F0FC0B9873
:100E500040F29C51C2F2000103F008FB07F0F6F9E2
:100E600007F000FAB8E140F23860C2F20000007802
:100E7000052811D0FFE740F23860C2F20000007888
:100E8000042809D0FFE740F23860C2F20000007881
:100E9000012840F0C280FFE740F20840C2F20000A3
:100EA000407D012845D0FFE740F23860C2F20000E3
:100EB000007805280FD1FFE740F2A460C2F20000DD
:100EC0000068002807D4FFE740F20841C2F20001A1
:100ED000012008751FE040F23860C2F2000000787F
:100EE000042810D1FFE740F24C00C2F20000B0F934
:100EF0001E00002807D4FFE740F20841C2F20001BB
:100F00000120087506E040F20841C2F20001FF200E
:100F10000875FFE7FFE740F20840C2F200000890C2
:100F200041F6CC31C2F2000107F0A2FC08994875E5
:100F3000FFE740F20840C2F20000807D58B1FFE7B1
:100F400040F22040C2F20000808E40F20C71C2F2EA
:100F50000001088060E040F20840C2F20000407DDD
:100F600000284DD0FFE740F22040C2F20000808E02
:100F700040F20C71C2F20001088040F20841C2F256
:100F80000001487D887540F23860C2F200000078A8
:100F9000052834D1FFE740F20840C2F2000090F982
:100FA000140001280DD1FFE740F20840C2F2000012
:100FB000B0F91000400840F24C01C2F20001C883B1
:100FC0000EE040F20840C2F20000B0F9101000201C
:100FD000A0EB510040F24C01C2F20001C883FFE7D0
:100FE00040F24C00C2F20000B0F91E1040F2446022
:100FF000C2F20000428C914003F0E8FBFFE70AE0F8
:1010000040F20840C2F20000408A40F20C71C2F285
:1010100000010880FFE7FFE7FFE740F20C70C2F233
:101020000000B0F9000003F0CBF9109040F29C51A1
:10103000C2F2000104911098086040F24C01C2F223
:101040000001079101F10A00163103F0CDF904996E
:10105000079803F0E1F940F21820C2F20000059071
:1010600003F06CFE059940F22040C2F200000690A9
:1010700007F06CFC014606988186C16B40F20020A7
:10108000C2F2000003F0E4FC069A014607981164DE
:10109000828B40F2FA61C2F200014A80408B0880E4
:1010A00040F20840C2F20000407D012810D0FFE766
:1010B00040F23860C2F200000078022808D0FFE752
:1010C00040F23860C2F20000007803280DD1FFE73B
:1010D00040F24C00C2F20000028C41F6CC31C2F268
:1010E00000014A80C08B0880FFE740F23860C2F2FE
:1010F00000000078062820D0FFE740F23860C2F2F6
:1011000000000078052818D0FFE740F23860C2F2EE
:1011100000000078042810D0FFE740F23860C2F2E7
:1011200000000078022808D0FFE740F23860C2F2E1
:1011300000000078032830D1FFE741F6CC30C2F23E
:1011400000000090B0F9020040F2FA61C2F2000122
:101150000191B1F90210411A40F26810C2F2000088
:1011600007F066FA014640F22800C2F20000039040
:10117000C18040F23811C2F20001029107F03EFB3B
:101180000099019A0298B1F90010B2F90020891A69
:1011900007F04EFA039988800FE040F23860C2F2FF
:1011A00000000078012807D1FFE740F22800C2F2D2
:1011B000000007F03CFBFFE7FFE740F22800C2F227
:1011C000000040F29C51C2F2000103F04FF907F019
:1011D0003DF807F047F8FFE7FFE740F29A51C2F207
:1011E000000108780130087040B240F2B661C2F2E6
:1011F0000001097C884219DBFFE740F20C70C2F263
:101200000000008840F2B661C2F20001888140F21D
:101210001470C2F200000068C88106F011FD40F2AF
:101220009A51C2F2000100200870FFE7FFE712B0F8
:1012300080BDD4D480B542F60040C4F201008021C4
:1012400002F076FBB0B1FFE742F60040C4F20100C5
:10125000802102F085FB40F2B610C2F20000007857
:1012600000F0080240F2B561C2F2000108781043B4
:101270000870FFE780BDD4D480B542F20040C4F2CC
:101280000100042100F08CFF30B3FFE742F2004080
:10129000C4F20100042100F09DFF40F2B460C2F2EC
:1012A0000000007802280BD0FFE740F24C00C2F2A9
:1012B000000040F29A11C2F2000103F0E3F90AE0E3
:1012C00040F2B440C2F2000040F24C01C2F2000110
:1012D00007F0A4FCFFE7FFE780BDD4D480B545F25A
:1012E0000040C4F20100012102F022FBB0B3FFE78D
:1012F00045F20040C4F20100012102F031FB40F24E
:10130000B460C2F200000078042826D1FFE740F262
:101310003860C2F20000007805281DD1FFE740F2D6
:10132000A460C2F20000406840F21071C2F20001F5
:101330000968411A40F2A050C2F200000160016841
:1013400040F24460C2F2000007F072F940F24C0132
:10135000C2F20001C883FFE7FFE7FFE780BDD4D4F6
:1013600080B584B040F22040C2F20000006C40F230
:101370001071C2F20001086040F21870C2F2000061
:101380000068096803F0AAFA40F21471C2F2000181
:10139000086040F28C50C2F2000040897C38ADF801
:1013A0000E0040F29810C2F200000078014602914F
:1013B000102800F219820299DFE811F0110059009B
:1013C000B200B300EB005D0173017401CC00830136
:1013D0001602B501B401160216021602150240F2F9
:1013E0002870C2F200000078012822D1FFE7BDF981
:1013F0000E00002815DCFFE740F2B260C2F20000E8
:10140000007870B1FFE740F2B060C2F200000078EF
:1014100038B1FFE740F2B461C2F200010120087068
:1014200006E040F2B461C2F2000100200870FFE75C
:101430001CE040F2B060C2F20000007870B1FFE73B
:1014400040F2B260C2F20000007838B1FFE740F22B
:10145000B461C2F200010120087006E040F2B461FC
:10146000C2F2000100200870FFE7FFE7BCE140F294
:10147000B360C2F20000007870B3FFE740F238605A
:10148000C2F200000078022808D0FFE740F238607E
:10149000C2F200000078032807D1FFE740F2B461F0
:1014A000C2F200010920087015E040F23860C2F273
:1014B0000000007838B9FFE740F2B461C2F20001E1
:1014C0000420087006E040F2B461C2F2000103207B
:1014D0000870FFE7FFE7FFE740F20850C2F20000A4
:1014E00090F8380001281AD1FFE740F20850C2F204
:1014F0000000019007F0D8FB019840F23811C2F2C9
:10150000000103F06BF9019840F26811C2F200018A
:1015100003F064F90199032081F83800FFE763E1E3
:1015200062E140F20840C2F20000407D88B1FFE76E
:1015300040F21070C2F20000006840F2A461C2F2F2
:101540000001486040F2B461C2F20001042008705A
:10155000FFE749E140F23860C2F20000007880B154
:10156000FFE740F29400C2F20000807D032807D11B
:10157000FFE740F2B461C2F2000104200870FFE707
:1015800006E040F2B461C2F2000104200870FFE7F7
:101590002AE140F22870C2F200000078012843D10D
:1015A000FFE740F23860C2F20000007805281FD142
:1015B000FFE7BDF90E00F8280CDBFFE7BDF90E00D0
:1015C0004CF214114843C01340F2A461C2F200016E
:1015D000086006E040F2A461C2F20001C820086081
:1015E000FFE740F2A460C2F2000003F019F91AE02C
:1015F00040F23860C2F200000078042812D1FFE700
:10160000BDF90E00F8280CDBFFE7BDF90E0042F231
:10161000E9314843C00B40F24C01C2F20001C883DB
:10162000FFE7FFE7FFE717E040F22870C2F2000093
:10163000007880B9FFE740F23860C2F2000000781D
:10164000052807D1FFE740F2A460C2F2000003F0D2
:10165000E7F8FFE7FFE7FFE740F2B360C2F2000000
:10166000007838B9FFE740F2B461C2F2000105200A
:101670000870FFE7B8E040F21070C2F200000068A6
:1016800038B9FFE740F2B461C2F2000101200870EE
:1016900006E040F2B461C2F2000105200870FFE7E5
:1016A000A2E0A1E040F2B560C2F20000007838B9D3
:1016B000FFE740F2B461C2F2000100200870FFE7CA
:1016C00092E040F2B360C2F200000078012803D13A
:1016D000FFE706F053FD0DE040F24C01C2F20001BD
:1016E00000200884C88340F2B461C2F200010520E2
:1016F0000870FFE740F23860C2F20000007802286C
:101700000FD0FFE740F23860C2F2000000780328F3
:1017100007D0FFE740F2B461C2F200010120087077
:10172000FFE761E060E040F23820C2F2000090F88C
:101730003D00012807D1FFE740F23820C2F2000047
:1017400007F0DAFB4EE040F23820C2F2000090EDE4
:10175000060AB5EE400AF1EE10FA0CD9FFE740F2A6
:101760003820C2F2000090ED050AB5EE400AF1EE15
:1017700010FA1AD8FFE740F23821C2F20001042023
:1017800081F83D0040F2B610C2F20000007800F08F
:10179000400340F2B562C2F20002107818431070A4
:1017A000C8694861086A88610BE040F23821C2F2DA
:1017B0000001032081F83D004869C861886908621A
:1017C000FFE706F06BFC06F0B1FCFEF7E9FDFFF762
:1017D00021F806F0A1FC40F2B461C2F2000105203C
:1017E0000870FFE700E0FFE740F28C51C2F2000111
:1017F000088900EE100AB8EEC00A9FED5B1A20EED1
:10180000010A9FED5A1A80EE010A9FED591A30EE37
:10181000010A9FED581A80EE010A9FED571A30EE2B
:10182000010A40F21C70C2F2000080ED000A90ED47
:10183000000A9FED521A20EE010ABDEEC00A10EE1A
:10184000102A40F2B660C2F200008280C988C180CE
:1018500040F21471C2F20001096842F63572C0F21A
:1018600002025143C90B018040F2A461C2F200019F
:1018700049685143C90B418040F20071C2F2000136
:1018800091ED020AB8EEC00A9FED3D1A20EE010A62
:10189000BDEEC00A10EE102AD20B028191ED010AB2
:1018A000B8EEC00A20EE010ABDEEC00A10EE101A12
:1018B000C90B4181B0F9060040F27E2188420FDC5D
:1018C000FFE740F2B610C2F20000007800F002021A
:1018D00040F2B561C2F2000108781043087019E0C7
:1018E00040F2B660C2F20000B0F90600B0F55C6FDD
:1018F0000FDBFFE740F2B610C2F20000007800F004
:10190000010240F2B561C2F200010878104308708C
:10191000FFE7FFE740F28C50C2F20000008940F67A
:10192000792188420FDBFFE740F2B610C2F20000D7
:10193000007800F0040240F2B561C2F200010878BC
:1019400010430870FFE740F2B560C2F20000007873
:1019500038B1FFE740F2B461C2F20001072008701D
:10196000FFE704B080BD00BF3333534000F07F4534
:101970008FC2F5BEA69BC43C000000000000C84218
:1019800093E0BE4180B582B04FF4805001F044F93D
:1019900048B3FFE71E2002F0D9FC4FF480500190BD
:1019A00001F030F9019940F60000C4F2010001F0A5
:1019B00083FB012816D1FFE740F2B360C2F20000BA
:1019C000007838B1FFE740F2B361C2F200010020B5
:1019D000087006E040F2B361C2F200010120087015
:1019E000FFE7FFE7FFE702B080BDD4D44EF6885191
:1019F000CEF20001086840F47000086041F2000176
:101A0000C4F20201086840F001000860FFE741F2FB
:101A10000000C4F202000068C0F34000012801D0B9
:101A2000FFE7F4E741F20401C4F20201086820F084
:101A300003000860FFE741F20400C4F202000068FE
:101A40008008800708B1FFE7F5E741F20001C4F222
:101A5000020108684FF6FF72CFF6F262104008608C
:101A600041F20401C4F202010020086041F2300199
:101A7000C4F20201086041F20801C4F202014FF40D
:101A80001F0008604EF60851CEF200014FF00060D2
:101A90000860704780B588B00020079006900590D8
:101AA0000490039000F08EFD8DF80B009DF80B0064
:101AB0000146019140B1FFE7019801282BD0FFE7D3
:101AC0000198022831D084E041F25400C4F20200AF
:101AD0000068400AC00798B1FFE741F23000C4F245
:101AE00002000068400EC00750B1FFE740F2040159
:101AF000C2F2000146F60040C0F2DC20086009E0B6
:101B000040F20401C2F2000141F20020C0F27A006A
:101B10000860FFE767E040F20401C2F2000141F211
:101B20000020C0F27A0008605DE041F20400C4F2D7
:101B300002000168C1F3004105910168C1F38341CE
:101B400007910068C0F341700690069820B9FFE73E
:101B500007980F2807D1FFE70699079800EB0110B7
:101B60000130079003E0079802300790FFE70598DF
:101B700060B9FFE7079840F60011C0F23D01484305
:101B800040F20401C2F20001086021E041F20400C9
:101B9000C4F202000068400CC00760B1FFE707987C
:101BA00040F60011C0F23D01484340F20401C2F288
:101BB000000108600BE0079841F20021C0F27A01B1
:101BC000484340F20401C2F200010860FFE7FFE76A
:101BD00009E040F20401C2F2000141F20020C0F22B
:101BE0007A000860FFE741F20400C4F202000068D6
:101BF000C0F30310049004994AF61C20C0F60000BC
:101C0000405C039040F20401C2F200010868039AAC
:101C1000D040086008B080BD82B001908DF80310FC
:101C20009DF803200199886862F30000886002B083
:101C30007047D4D481B08DF803009DF8032042F2A0
:101C40000441C4F20101086802F00F0220F4702080
:101C500040EA0240086001B07047D4D482B00190DD
:101C60000091009802780199486802F0010220F47E
:101C7000807040EA022048600098427801998868A4
:101C800002F0010220F0020040EA42008860009861
:101C900082780199886802F0010220F4006040EA2D
:101CA000C22088600098C078421E0199C86A02F07C
:101CB0000F0220F4700040EA0250C86202B0704780
:101CC00082B001908DF803109DF803200199886877
:101CD00002F0010220F4807040EA0220886002B025
:101CE0007047D4D483B0029001918DF803209DF801
:101CF0000300012806D1FFE7019A029948681043C2
:101D000048600AE09DF8030030B9FFE7019A0299A4
:101D1000486890434860FFE7FFE703B07047D4D4BA
:101D200081B000900099886840F00800886001B098
:101D30007047D4D482B0009000988068C008C00773
:101D400020B1FFE701208DF8070003E000208DF8A7
:101D50000700FFE79DF8070002B0704781B00090D0
:101D60000099886840F00400886001B07047D4D4BE
:101D700082B00090009880688008C00720B1FFE71B
:101D800001208DF8070003E000208DF80700FFE731
:101D90009DF8070002B0704783B002908DF80710DD
:101DA0008DF806208DF805309DF8070009281CDC09
:101DB000FFE70298006900909DF8070000EB4001E2
:101DC000072000FA01F10098884300909DF8050073
:101DD0009DF8071001EB410100FA01F1009808435A
:101DE00000900098029908611EE00298C068009077
:101DF0009DF8070000EB4000A0F11E01072000FA4B
:101E000001F10098884300909DF805009DF80710A7
:101E100001EB41011E3900FA01F1009808430090DE
:101E200000980299C860FFE79DF806000D281FDBA7
:101E3000FFE70298C06A00909DF8060000EB800062
:101E4000A0F141011F2000FA01F1009888430090A1
:101E50009DF807009DF8061001EB8101413900FA59
:101E600001F100980843009000980299C86242E08E
:101E70009DF8060007281FDBFFE70298006B009023
:101E80009DF8060000EB8000A0F123011F2000FA5E
:101E900001F10098884300909DF807009DF8061016
:101EA00001EB8101233900FA01F100980843009009
:101EB0000098029908631DE00298406B00909DF81D
:101EC000060000EB8000411F1F2000FA01F100987E
:101ED000884300909DF807009DF8061001EB8101F2
:101EE000053900FA01F10098084300900098029922
:101EF0004863FFE7FFE703B07047D4D482B0019096
:101F00008DF803109DF80300421E0199886B02F0C2
:101F1000030220F4401040EA0250886302B0704788
:101F200085B004908DF80F108DF80E208DF80D30CF
:101F30009DF80F0009281CDCFFE704980069029057
:101F40009DF80F0000EB4001072000FA01F1029814
:101F5000884302909DF80D009DF80F1001EB4101A0
:101F600000FA01F10298084302900298049908616E
:101F70001EE00498C06802909DF80F0000EB40003E
:101F8000A0F11E01072000FA01F102988843029097
:101F90009DF80D009DF80F1001EB41011E3900FA6C
:101FA00001F102980843029002980499C860FFE783
:101FB0009DF80E000499896BC1F30151401A03305A
:101FC0008DF807009DF807000138014600910328AD
:101FD00030D80099DFE801F0020A16229DF80F20A0
:101FE0000499886B62F30400886324E09DF80F2055
:101FF0000499886B02F01F0220F4787040EA4210C6
:10200000886318E09DF80F200499886B02F01F0286
:1020100020F4F84040EA822088630CE09DF80F200D
:102020000499886B02F01F0220F4782040EAC23045
:10203000886300E0FFE705B07047D4D482B0019018
:102040008DF803108DF802209DF80300082811DB9D
:10205000FFE70199886840F0007088609DF80300F0
:1020600000F007020199886820F4602040EA4240AD
:10207000886010E00199886820F0007088609DF801
:10208000030000F007020199886820F4602040EA0C
:1020900042408860FFE79DF802200199886802F0BD
:1020A000010220F4801040EA0250886002B07047BC
:1020B00082B001908DF803108DF802209DF8030086
:1020C000082811DBFFE70199886840F0807088607C
:1020D0009DF8030000F007020199886820F4E040B1
:1020E00040EA0230886010E00199886820F0807032
:1020F00088609DF8030000F007020199886820F4C9
:10210000E04040EA02308860FFE79DF80220019934
:10211000886802F0010220F4004040EAC230886082
:1021200002B0704782B001908DF803109DF8032033
:102130000199886802F0010220F4800040EA825090
:10214000886002B07047D4D483B002908DF8071035
:102150000020ADF804009DF8070001460091032817
:1021600018D80099DFE801F002070C110298C06B43
:10217000ADF804000FE00298006CADF804000AE02E
:102180000298406CADF8040005E00298806CADF850
:10219000040000E0FFE7BDF8040003B07047D4D4AA
:1021A00082B001908DF8031000208DF80200019894
:1021B00000689DF80310084204D1FFE700208DF865
:1021C000020003E001208DF80200FFE79DF8020005
:1021D00002B0704782B0019000910098C04301990D
:1021E000086002B07047D4D441F20001C4F2020189
:1021F000086840F001000860FFE741F20000C4F207
:1022000002000068C0F34000012801D0FFE7F4E7B6
:1022100041F20401C4F20201086820F003000860E2
:10222000FFE741F20400C4F2020000688008800762
:1022300008B1FFE7F5E741F20001C4F202010868C6
:102240004FF6FF72CFF6F2621040086041F20401CF
:10225000C4F202010020086041F23001C4F2020120
:10226000086041F20801C4F202014FF41F00086047
:102270007047D4D482B0019000208DF80300BDF8DF
:10228000060041F20001C4F202014058019901F038
:102290001F01C840C00720B9FFE700208DF80300E8
:1022A00003E001208DF80300FFE79DF8030002B072
:1022B0007047D4D480B584B0002003908DF80B0013
:1022C000FFE71120FFF7D6FF01460020012901900A
:1022D00008D0FFE703990020B1F5405F38BF012027
:1022E0000190FFE70198C00720B1FFE70398013094
:1022F0000390E6E71120FFF7BDFF012804D0FFE7B8
:1023000000208DF80B0003E001208DF80B00FFE7A3
:102310009DF80B0004B080BD82B001908DF80310D1
:102320009DF8030001280FD1FFE7019800F01F027C
:10233000012101FA02F3010C41F20002C4F202028F
:102340008858184388500EE0019800F01F020121C0
:1023500001FA02F3010C41F20002C4F202028858B1
:1023600098438850FFE702B07047D4D482B08DF80C
:1023700007008DF806109DF807000146009104281B
:1023800044D80099DFE801F0030E1D2C37009DF8BA
:10239000062041F20001C4F20201086862F3000065
:1023A000086034E09DF8062041F20001C4F2020109
:1023B000086802F0010220F4803040EA0240086020
:1023C00025E09DF8062041F20001C4F202010868F0
:1023D00002F0010220F0807040EA0260086016E01E
:1023E0009DF8062041F22001C4F20201086862F360
:1023F000000008600BE09DF8062041F22401C4F2C1
:102400000201086862F30000086000E0FFE702B024
:102410007047D4D481B08DF803009DF8032041F2B9
:102420000401C4F20201086802F00F0220F0F0007B
:1024300040EA0210086001B07047D4D481B08DF832
:1024400003009DF8032041F20401C4F20201086870
:1024500002F0070220F4E06040EA0220086001B0C8
:102460007047D4D481B08DF803009DF8032041F269
:102470000401C4F20201086802F0070220F460506F
:1024800040EAC220086001B07047D4D481B08DF812
:1024900003009DF8030000F0030241F20401C4F2BE
:1024A0000201086820F4404040EA823008609DF84C
:1024B00003200868920862F31C70086001B070473E
:1024C00081B08DF803008DF802108DF801209DF881
:1024D000030088B9FFE741F20401C4F20201086871
:1024E00020F48030086041F23001C4F20201086833
:1024F00040F0007008601FE041F20401C4F20201E4
:10250000086840F4803008609DF80300012809D174
:10251000FFE741F20401C4F20201086820F4003030
:10252000086008E041F20401C4F20201086840F4C6
:1025300000300860FFE7FFE79DF8020000F00F029F
:1025400041F20401C4F20201086820F4701040EA6C
:10255000824008609DF8020000F03002086820F018
:10256000C04040EA426008609DF80120086820F001
:10257000004040EAC270086001B0704781B08DF839
:1025800003009DF8032041F20401C4F2020108682F
:1025900062F30100086000BF00BF00BF00BF00BFC2
:1025A00000BF00BF00BF00BF00BF00BF00BF00BF33
:1025B00000BF00BF00BF00BF00BF00BF00BF01B031
:1025C0007047D4D441F20400C4F202000068C0F3A2
:1025D0008100704780B588B0079000200690059074
:1025E000049003900290FFF7EDFF8DF807009DF82F
:1025F00007000146009140B1FFE70098012825D06F
:10260000FFE70098022828D072E041F25400C4F29B
:1026100002000068400AC00780B1FFE741F23000C5
:10262000C4F202000068400EC00738B1FFE7079906
:1026300046F60040C0F2DC20086006E0079941F24F
:102640000020C0F27A000860FFE758E0079941F2E5
:102650000020C0F27A00086051E041F20400C4F2A8
:1026600002000168C1F3004104910168C1F3834194
:1026700006910068C0F341700590059820B9FFE706
:1026800006980F2807D1FFE70599069800EB01107F
:102690000130069003E0069802300690FFE70498A8
:1026A00048B9FFE7069840F60011C0F23D014843E3
:1026B000079908601BE041F20400C4F202000068C0
:1026C000400CC00748B1FFE7069840F60011C0F281
:1026D0003D0148430799086008E0069841F200214F
:1026E000C0F27A01484307990860FFE7FFE706E078
:1026F000079941F20020C0F27A000860FFE741F23A
:102700000400C4F202000168C1F303110391039AAB
:102710004AF62C21C0F60001895C0291079A1168E3
:10272000029BD94051600168C1F302210391039AD1
:102730004AF63C21C0F60001895C0291079A516873
:10274000029BD940D1600168C1F3C2210391039A71
:102750004AF64421C0F60001895C0291079A51684B
:10276000029BD94091600168C1F300710391039904
:102770000068C0F3813040EA8100039003994AF673
:102780004C20C0F60000405C029007998868029ACD
:10279000B0FBF2F0086108B080BDD4D481B08DF8F0
:1027A00003009DF80300012809D1FFE741F254011D
:1027B000C4F20201086840F03000086008E041F20D
:1027C0005401C4F20201086820F030000860FFE7FD
:1027D00001B0704782B0019000200090019A11680A
:1027E00021F0010111600199086001994860019987
:1027F00088600199C86001980090009800F49F607B
:10280000C008802817D8FFE79DF8000008384CF66C
:10281000CD41CCF6CC41A0FB01016FF0030000EAF2
:1028200091010F2000FA01F20421C4F202010868AC
:10283000104308601FE0009800F49F60C0089028D3
:1028400018D8FFE79DF8000008384CF6CD41CCF6CB
:10285000CC41A0FB01016FF0030000EA91010F20C1
:1028600000FA01F240F20441C4F202010868104388
:102870000860FFE7FFE702B07047D4D482B0019050
:10288000ADF80210BDF802000199486002B070472F
:1028900081B000900098406880B201B07047D4D4F5
:1028A00083B0029001918DF803209DF8030030B1B0
:1028B000FFE7019A029908681043086005E0019A51
:1028C0000299086890430860FFE703B07047D4D4CA
:1028D00082B001908DF803109DF8032001990868DB
:1028E00062F30000086002B07047D4D482B0019057
:1028F0008DF803108DF802200198D0F8A400000E86
:10290000C00740B9FFE70199D1F8A40040F08070FA
:10291000C1F8A400FFE79DF8030001280BD1FFE7F1
:102920009DF802200199D1F8A00020F0FF0010448A
:10293000C1F8A0006AE09DF8030002280CD1FFE76F
:102940009DF802200199D1F8A00020F47F4040EAD0
:102950000220C1F8A00058E09DF8030003280CD124
:10296000FFE79DF802200199D1F8A00020F47F0034
:1029700040EA0240C1F8A00046E09DF803000428A8
:102980000CD1FFE79DF802200199D1F8A00020F0BA
:102990007F4040EA0260C1F8A00034E09DF80300E7
:1029A00005280BD1FFE79DF802200199D1F8A4007A
:1029B00020F0FF001044C1F8A40023E09DF80300BC
:1029C00006280CD1FFE79DF802200199D1F8A40058
:1029D00020F47F4040EA0220C1F8A40011E09DF8F5
:1029E000030007280CD1FFE79DF802200199D1F8D8
:1029F000A40020F47F0040EA0240C1F8A400FFE7F1
:102A0000FFE7FFE7FFE7FFE7FFE7FFE702B07047F9
:102A100081B00090009900200860009948600099FA
:102A200008810099488100990873009948730099BA
:102A300088730099C873009908740099487401B0AC
:102A40007047D4D482B001900091019908684BF688
:102A5000EF721040086000980289019908681043DD
:102A600008600098427C0199086802F0030220F493
:102A7000405040EA023008600098C27B0199086823
:102A800002F0030220F4406040EA822008600098CF
:102A9000827B0199086802F0030220F4407040EA4A
:102AA000022008600098427B0199086802F0010248
:102AB00020F0800040EAC21008600098027B019973
:102AC000086802F0010220F0400040EA821008602D
:102AD0000098027C0199086802F0010220F02000B1
:102AE00040EA4210086000984089019948600098C7
:102AF000006801998860009840680199C86002B038
:102B00007047D4D481B00090009900204872009999
:102B100048600099012008720099087001B0704760
:102B200082B0019000200090019840680090009AC7
:102B300040F20041C4F20101086890430860009A25
:102B400040F20441C4F20101086890430860019812
:102B5000407A002854D0FFE70198007848B9FFE791
:102B6000009A40F20041C4F2010108681043086075
:102B700008E0009A40F20441C4F2010108681043E1
:102B80000860FFE7009A40F20841C4F201010868BA
:102B900090430860009A40F20C41C4F201010868B9
:102BA000904308600198007A48B9FFE7009A40F224
:102BB0000841C4F201010868104308601FE0019851
:102BC000007A012809D1FFE7009A40F20C41C4F2D3
:102BD000010108681043086010E0009A40F20841C3
:102BE000C4F20101086810430860009A40F20C41E9
:102BF000C4F20101086810430860FFE7FFE7FFE740
:102C000002B0704781B00090009840F21441C4F2C5
:102C10000101086001B0704783B0029000208DF878
:102C20000700009040F21440C4F2010000680299CD
:102C300008400090009820B1FFE701208DF80700C0
:102C400003E000208DF80700FFE79DF8070003B0C0
:102C50007047D4D481B003208DF8030042F20C00F9
:102C6000C4F202000068C00720B1FFE700208DF821
:102C700003001FE042F20C00C4F20200006880086A
:102C8000C00720B1FFE701208DF8030011E042F2F8
:102C90000C00C4F2020000680009C00720B1FFE781
:102CA00002208DF8030003E003208DF80300FFE706
:102CB000FFE7FFE79DF8030001B0704781B00320F4
:102CC0008DF8030042F28C00C4F202000068C007D5
:102CD00020B1FFE700208DF803001FE042F28C00D6
:102CE000C4F2020000688008C00720B1FFE701209D
:102CF0008DF8030011E042F28C00C4F2020000687B
:102D00000009C00720B1FFE702208DF8030003E0AF
:102D100003208DF80300FFE7FFE7FFE79DF80300BE
:102D200001B0704780B584B0039003208DF80B008C
:102D3000FFF790FF8DF80B00FFE79DF80B100020C8
:102D4000019031B9FFE70398002818BF01200190D6
:102D5000FFE70198C00740B1FFE7FFF77BFF8DF861
:102D60000B00039801380390E7E7039820B9FFE7C9
:102D700004208DF80B00FFE79DF80B0004B080BD28
:102D800080B584B0039003208DF80B00FFF796FF09
:102D90008DF80B00FFE79DF80B100020019031B972
:102DA000FFE70398002818BF01200190FFE7019872
:102DB000C00740B1FFE7FFF781FF8DF80B000398D4
:102DC00001380390E7E7039820B9FFE704208DF866
:102DD0000B00FFE79DF80B0004B080BD42F2040138
:102DE000C4F2020140F22310C4F26750086048F6B2
:102DF000AB10CCF6EF5008607047D4D442F210010B
:102E0000C4F20201086840F0800008607047D4D422
:102E100080B584B0039003208DF80B000398B0F1C7
:102E2000046F21D3FFE742F29001C4F20201019145
:102E3000086840F002000860039842F29402C4F26D
:102E400002021060086840F0400008604FF0FF3058
:102E5000FFF796FF01998DF80B00086820F002003B
:102E6000086000F025F81EE042F21001C4F20201F1
:102E70000091086840F002000860039842F21402D2
:102E8000C4F202021060086840F0400008604FF091
:102E90008040FFF747FF00998DF80B00086820F08D
:102EA00002000860FFE79DF80B0004B080BDD4D499
:102EB0004FF00460006841F20000C0F64000006876
:102EC00042F20000C0F640000068704780B586B04E
:102ED0000590049103208DF80F000598B0F1046F60
:102EE0001AD3FFE742F29001C4F20201029108688E
:102EF00040F0010008600498059908604FF48010C4
:102F0000FFF73EFF02998DF80F00086820F00100DE
:102F10000860FFF7CDFF17E042F21001C4F2020192
:102F20000191086840F00100086004980599086064
:102F30004FF48010FFF7F6FE01998DF80F00086836
:102F400020F001000860FFE79DF80F0006B080BD8B
:102F500084B00390029102980068ADF800000298D6
:102F60008079032804D1FFE70020ADF802002FE0AC
:102F700002988079E0B9FFE70298407900F00F00ED
:102F8000ADF8020002984079182805D1FFE7BDF896
:102F90000000039908610AE002984079282805D1C9
:102FA000FFE7BDF8000003994861FFE7FFE70EE087
:102FB00002990A798879C97900F0080002F00402C0
:102FC000104401F003010844ADF80200FFE7FFE7F9
:102FD0009DF8000040B3FFE700200190FFE7019853
:102FE000072820D8FFE70199BDF80000C840C007B6
:102FF000A0B1FFE7019881000F2000FA01F20399C8
:10300000086890430860BDF802000199890000FA41
:1030100001F20399086810430860FFE7FFE7019891
:1030200001300190DBE7FFE7BDF80000B0F5807FDD
:103030002CDBFFE79DF80100ADF8000000200190B7
:10304000FFE70198072820D8FFE70199BDF80000A5
:10305000C840C007A0B1FFE7019881000F2000FA27
:1030600001F20399486890434860BDF80200019955
:10307000890000FA01F20399486810434860FFE7AD
:10308000FFE7019801300190DBE7FFE704B07047EC
:1030900081B0009000994FF6FF7008600099002001
:1030A00088710099087100990420487100990120E5
:1030B000C87101B07047D4D482B00190ADF802104D
:1030C00000208DF80100BDF80200019989680140D7
:1030D000884204D0FFE700208DF8010003E00120C2
:1030E0008DF80100FFE79DF8010002B07047D4D4CD
:1030F00085B004908DF80F109DF813000021C4F2E4
:10310000010108430290BDF812008DF803000498F5
:10311000000A8DF8020004988DF801009DF8020065
:103120009DF803100844C0F120014FF0FF308840A3
:10313000019001989DF802109DF803201144C1F1FF
:103140002001C840019001989DF80310C8400190EB
:1031500001989DF8031088400190019A029908682F
:10316000904308609DF80F0058B1FFE79DF80100FB
:103170009DF8031000FA01F20299086810430860F4
:10318000FFE705B07047D4D483B08DF80B008DF8FD
:103190000A10002001909DF80A0000F00300810051
:1031A0000F20884001909DF80A0080080146009198
:1031B000032854D80099DFE801F002162A3E019A4C
:1031C0000821C4F201010868904308609DF80B00D3
:1031D0009DF80A2002F00302920000FA02F2086849
:1031E000104308603CE0019A0C21C4F20101086818
:1031F000904308609DF80B009DF80A2002F003023E
:10320000920000FA02F208681043086028E0019A70
:103210001021C4F201010868904308609DF80B007A
:103220009DF80A2002F00302920000FA02F20868F8
:103230001043086014E0019A1421C4F201010868E7
:10324000904308609DF80B009DF80A2002F00302ED
:10325000920000FA02F208681043086000E0FFE7FD
:1032600003B0704780B584B08DF80F0002910192D1
:103270000020009000F046F80299019A00F00CF846
:1032800000909DF90F00009900F044F89DF90F009F
:1032900000F062F804B080BD88B0079006910592F6
:1032A000079800F0070004900498C0F10700052873
:1032B00003D3FFE70420019004E00498C0F1070065
:1032C0000190FFE70198039004980430062803D882
:1032D000FFE70020009003E0049803380090FFE728
:1032E0000098029006980399012202FA01F101392F
:1032F0000840029B984005999A40013A11400843C2
:1033000008B070474EF60C50CEF200000068C0F3D3
:103310000220704782B08DF8070000919DF90700E8
:1033200000280AD4FFE7009800019DF907104EF22B
:103330000042CEF2000288540BE0009800019DF894
:10334000071001F00F014EF61452CEF2000288541D
:10335000FFE702B07047D4D481B08DF803009DF927
:10336000030000280ED4FFE79DF9031001F01F02AF
:10337000012090404A094EF20011CEF2000141F8BE
:103380002200FFE701B0704780B582B08DF80700DA
:103390009DF8070000F002F802B080BD83B00290F3
:1033A000029800F0070000904EF60C51CEF200019A
:1033B0000868019001984FF6FF02104001900198B3
:1033C000009A40EA02200022C0F2FA521043019013
:1033D0000198086003B0704781B08DF803009DF834
:1033E0000300042809D1FFE74EF21001CEF20001DC
:1033F000086840F00400086008E04EF21001CEF2C8
:103400000001086820F004000860FFE701B0704781
:1034100082B001908DF803109DF80320019908688F
:1034200062F30000086002B07047D4D481B000900D
:1034300000990020087000994870009988700099E0
:10344000C87000990871009948710099887101B09D
:103450007047D4D481B00090009900200870009982
:103460004870009988700099C87000990871009997
:1034700048710099887101B07047D4D483B002902C
:103480000191009201980299C8620098029988629D
:103490000299486940F00100486103B07047D4D4F4
:1034A00082B001908DF803109DF8032001990868FF
:1034B00002F0030220F4407040EA0220086002B0EB
:1034C0007047D4D482B001908DF803109DF803208A
:1034D0000199086802F0070220F0700040EA02102B
:1034E000086002B07047D4D482B001908DF8031008
:1034F0009DF803200199086B20F0FF001044086339
:1035000002B0704787B006908DF817100492002023
:10351000ADF80E00ADF80C00ADF80A009DF81700EC
:103520000830ADF808009DF817000930ADF8060026
:1035300004984078BDF808108840ADF80E00049853
:103540008078BDF806108840ADF80C00BDF8061074
:10355000012000FA01F3069A516899435160BDF8C1
:103560000C30069A516819435160BDF8081000FAF2
:1035700001F20699486890434860BDF80E2006990C
:103580004868104348609DF81700ADF80A00BDF880
:103590000A0001460091062836D80099DFE801F0BC
:1035A000043410341C342800049802780699886981
:1035B00002F0070220F0700040EA0210886124E067
:1035C000049802780699886902F0070220F4E04026
:1035D00040EA0230886118E0049802780699C869C8
:1035E00002F0070220F0700040EA0210C8610CE00F
:1035F000049802780699C86902F0070220F4E040B6
:1036000040EA0230C86100E0FFE79DF81700400083
:103610000130ADF808009DF81710032000EB4100C1
:10362000ADF806000498C078BDF808108840ADF8E1
:103630000E0004980079BDF806108840ADF80C0023
:10364000BDF80610012000FA01F3069A116A9943A9
:103650001162BDF80C30069A116A19431162BDF867
:10366000081000FA01F3069A116A99431162BDF835
:103670000E30069A116A194311629DF8171049001D
:10368000ADF808109DF81710022202EB4101ADF8C9
:103690000610049949799DF817305B009940ADF800
:1036A0000E10049989799DF8173002EB430291407E
:1036B000ADF80C10BDF8061000FA01F3069A116A75
:1036C00099431162BDF80C30069A116A19431162D0
:1036D000BDF8081000FA01F20699086A90430862E2
:1036E000BDF80E200699086A1043086207B07047BB
:1036F00085B004908DF80F1002929DF80F00ADF880
:103700000600BDF8060001460091062816D800996B
:10371000DFE801F0041408140C1410000298049956
:1037200048630CE002980499886308E002980499C1
:10373000C86304E002980499086400E0FFE705B05C
:103740007047D4D483B002908DF807108DF806200E
:103750009DF80700ADF80400BDF804000146009193
:10376000062836D80099DFE801F0043410341C3400
:1037700028009DF806200299886902F0010220F0D5
:10378000080040EAC200886124E09DF80620029902
:10379000886902F0010220F4006040EAC2208861DA
:1037A00018E09DF806200299C86902F0010220F095
:1037B000080040EAC200C8610CE09DF806200299AA
:1037C000C86902F0010220F4006040EAC220C8612A
:1037D00000E0FFE703B0704782B001908DF803105E
:1037E0009DF803200199086802F0010220F008000A
:1037F00040EAC200086002B07047D4D483B002909F
:103800008DF807108DF806209DF80700ADF804002C
:10381000BDF8040001460091062856D80099DFE85B
:1038200001F0040C1824303C48009DF80620029951
:10383000086A62F30000086248E09DF806200299D9
:10384000086A02F0010220F0040040EA82000862E7
:103850003CE09DF806200299086A02F0010220F07F
:10386000100040EA0210086230E09DF8062002993C
:10387000086A02F0010220F0400040EA821008626B
:1038800024E09DF806200299086A02F0010220F463
:10389000807040EA0220086218E09DF80620029934
:1038A000086A02F0010220F4806040EA8220086287
:1038B0000CE09DF806200299086A02F0010220F44B
:1038C000805040EA0230086200E0FFE703B0704732
:1038D00082B001908DF803109DF80320019948688B
:1038E00002F0070220F0700040EA0210486002B0C7
:1038F0007047D4D483B0029001918DF803209DF8D5
:103900000300012806D1FFE7019A0299C868104315
:10391000C8600AE09DF8030030B9FFE7019A0299F8
:10392000C8689043C860FFE7FFE703B07047D4D48E
:1039300083B00290019100208DF803000298006985
:103940000199084204D0FFE701208DF8030003E04D
:1039500000208DF80300FFE79DF8030003B07047D7
:1039600082B0019000910098C0430199086102B0B3
:103970007047D4D482B001908DF803109DF80320D5
:103980000199486C02F0010220F4004040EAC23084
:10399000486402B07047D4D482B00190009100987E
:1039A00082790199486C02F0010220F4805040EACB
:1039B00002304864009802780199486C20F0FF00BA
:1039C00010444864009842790199486C02F0010261
:1039D00020F4806040EA82204864009802790199CE
:1039E000486C02F0010220F4006040EAC220486402
:1039F000009842780199486C02F0010220F40050CE
:103A000040EA423048640098C2780199486C02F05C
:103A1000010220F4804040EA8230486400988278B5
:103A20000199486C02F0030220F4407040EA022041
:103A3000486402B07047D4D480B58AB00990089128
:103A40008DF81F208DF81E3002A8FEF7C3FD0998DF
:103A500043F60001C4F20101884203D1FFE7049854
:103A6000019002E005980190FFE7019800EB8000CB
:103A700040000899B0FBF1F0009000984CF6CD4161
:103A8000CCF6CC41A0FB0121C90801EB8101A0EBE0
:103A9000410004280AD8FFE700984CF6CD41CCF647
:103AA000CC41A0FB0110C00800900BE000984CF640
:103AB000CD41CCF6CC41A0FB0101012000EBD100AF
:103AC0000090FFE7BDF80020099988684FF6FF7362
:103AD0009843104488609DF81F200999C86802F037
:103AE000010220F4805040EA0230C8609DF81E2098
:103AF0000999086902F0030220F4405040EA0230BC
:103B000008610AB080BDD4D482B001908DF8031052
:103B10009DF803200199C86802F0010220F40050CA
:103B200040EA4230C86002B07047D4D482B00190FD
:103B30008DF803109DF803200199C86802F0010276
:103B400020F0080040EAC200C86002B07047D4D438
:103B500082B001908DF803109DF803200199C86888
:103B600002F0010220F0040040EA8200C86002B0C6
:103B70007047D4D483B0029001918DF803209DF852
:103B8000030001280CD1FFE7019800F01F0201217A
:103B900001FA02F30299020C8858184388500BE08E
:103BA000019800F01F02012101FA02F30299020CB0
:103BB000885898438850FFE703B0704782B001905F
:103BC0008DF803109DF803200199486902F0010265
:103BD00020F0800040EAC210486102B07047D4D49F
:103BE00082B001908DF803109DF803200199486977
:103BF00002F0010220F0400040EA8210486102B069
:103C00007047D4D483B00190009101980068009966
:103C1000084204D0FFE701208DF80B0003E00020EC
:103C20008DF80B00FFE79DF80B0003B07047D4D46C
:103C300082B0019000919DF80000C00628B1FFE716
:103C4000019800680198406804E00098C043019919
:103C50000860FFE702B0704780B584B00290019120
:103C600000200090029818B1FFE7019820B9FFE703
:103C70006FF00700039056E040F2A450C2F200003B
:103C8000007838B9FFE740F2A850C2F2000000F017
:103C90007BFAFFE740F2A451C2F20001087801303C
:103CA0000870019800680299086002990020486035
:103CB0000298343000F080FA02990868486302984C
:103CC00000640298083000F05FFA029800F13401B5
:103CD00040F2A850C2F2000000F076FA0198406865
:103CE00028B1FFE7019840680299086303E06FF08C
:103CF0000A000090FFE701980C3002998862019851
:103D0000806868B1FFE702980199896800F00EF8B1
:103D10000090009818B1FFE70098039003E0FFE7D8
:103D200000980390FFE7039804B080BD80B584B08D
:103D300002900191029818B1FFE7019820B9FFE7BE
:103D40006FF0070003901CE001980299C862019887
:103D5000006878B1FFE70198808801280ADBFFE757
:103D6000019800680090009801998A88002100F06D
:103D700040F803E06FF00700039002E0002003909A
:103D8000FFE7039804B080BD83B00190019818B993
:103D9000FFE7002002900CE0019840680090009836
:103DA00020B1FFE7019900204860FFE700980290EA
:103DB000FFE7029803B0704781B040F2A850C2F20A
:103DC000000000690090FFE7009840F2A851C2F29D
:103DD00000010831884205D0FFE7FFE700988068BE
:103DE0000090F1E701B0704740F2A850C2F2000025
:103DF000704700239A4208BF7047C1540133F9E766
:103E000080B540F2BC50C2F2000000F0BDF980BDA8
:103E100080B584B003900020019002900398103088
:103E200000F008FA019803990873029804B080BD65
:103E300080B584B00020039040F2BC50C2F2000074
:103E400000690090FFE7009840F2BC51C2F2000107
:103E50000831884228D0FFE70098C06808B9FFE71A
:103E60001EE00098C06802900298806808B1FFE7E1
:103E700007E04AF61930C0F60000782100F08AF811
:103E8000FFE702994868896888478DF807009DF91F
:103E9000070020B9FFE70298FFF7BAFFFFE7FFE747
:103EA000009880680090CEE7039804B080BDD4D419
:103EB00084B003900291019216200090039800991B
:103EC000884205D2FFE70398B0F1FF3F01DCFFE72E
:103ED00000E0FFE704B0704783B0029001910092C8
:103EE00003B0704780B582B00190019808B9FFE730
:103EF0001FE00198006888B1FFE70198006840F270
:103F00000801C2F20001086040F2D050C2F2000085
:103F100000F0DCF808B1FFE7FFE7FFE7FFF770FF0D
:103F2000FFF74AFF40F2DC51C2F2000101200870A5
:103F3000FFE702B080BDD4D480B584B0FFF754FF52
:103F40000390039808B9FFE722E003980069029004
:103F5000FFE7029803990831884216D0FFE70298DC
:103F6000C0680190019808B9FFE711E00198806AE4
:103F700008B9FFE70CE00198816A006B496888473F
:103F8000FFE7029880680290E3E7FFF751FFFFE741
:103F900004B080BD82B001900091FFE7FEE7D4D469
:103FA00080B584B0029002980190019878B9FFE73B
:103FB0004AF66620C0F600004AF6F121C0F600017C
:103FC0006A22FFF789FF6FF01300039002E00020E0
:103FD0000390FFE7039804B080BDD4D480B586B0C9
:103FE00004900020039004980190019820B1FFE70D
:103FF0000198006878B9FFE74AF67E20C0F6000015
:104000004AF6F121C0F600014E22FFF765FF6FF07E
:10401000130005900FE001980068FFF7B5FE0290CD
:10402000029828B1FFE70198029900F007F8FFE72E
:1040300003980590FFE7059806B080BD80B582B073
:1040400001900091019820B1FFE70198406860B9A4
:10405000FFE74AF6A820C0F600004AF6F121C0F6B4
:1040600000012A22FFF738FF2EE09DF80000C0076C
:1040700090B1FFE74AF65420C0F600004AF6F1215D
:10408000C0F600013022FFF727FF01984168086859
:104090008A6889889047FFE79DF80000800700281C
:1040A00012D5FFE74AF60730C0F600004AF6F121C4
:1040B000C0F600013522FFF70FFF0198416808683C
:1040C000CA6889889047FFE702B080BD80B586B096
:1040D00004900391002002900498019003980090AE
:1040E000019818B1FFE7009878B9FFE74AF6313038
:1040F000C0F600004AF6F121C0F600018622FFF763
:10410000EBFE6FF0130005903BE00098006801990A
:104110004860019940F2E050C2F200000860019846
:10412000006878B9FFE74AF6D220C0F600004AF6E8
:10413000F121C0F600018F22FFF7CEFE6FF01300D1
:1041400005901EE0049840F21001C2F200014860A0
:1041500001980068FFF780FD02900298B0F1FF3FE0
:104160000BDCFFE702984AF6F121C0F60001982225
:10417000FFF79EFE0298059003E0FFE70298059086
:10418000FFE7059806B080BD81B00090009901F16D
:104190000800486000994FF0FF308860009901F1F5
:1041A0000800C860009901F108000861009900202A
:1041B000086001B07047D4D481B00090009900200D
:1041C000086101B07047D4D484B003900291029882
:1041D000006800900098013020B9FFE7039800695B
:1041E000019010E0039808300190FFE701984068C3
:1041F00000680099884205D8FFE7FFE7019840680A
:104200000190F3E7FFE7019840680299486002983F
:104210004168886001980299886002980199486015
:10422000039802990861039908680130086004B096
:104230007047D4D482B00190019800690090019831
:10424000416880688860019948688968486000987A
:1042500040680199884205D1FFE70198806800997C
:10426000486000E0FFE701990020086100990868B4
:10427000013808600098006802B0704780B50420DB
:10428000FFF7AAF840F20400C2F20000006844F60A
:10429000D351C1F26201A0FB011080094EF214015A
:1042A000CEF2000108604EF21801CEF200010020AB
:1042B00008604EF21001CEF20001086840F00300E1
:1042C00008604FF0FF30032100F002F880BDD4D425
:1042D00082B08DF8070000919DF9070000280AD4EC
:1042E000FFE7009800019DF907104EF20042CEF260
:1042F000000288540BE0009800019DF8071001F0BF
:104300000F014EF61452CEF200028854FFE702B0BD
:104310007047D4D440F20400C2F2000000684DF6A9
:104320008361C4F21B31A0FB0110810C40F22860B4
:10433000C2F20000016000684FF47A71484340F215
:104340002C61C2F2000108607047D4D484B0ADF88B
:104350000E00002002904EF21800CEF2000000681D
:1043600001904EF21000CEF2000000680290FFE7CC
:10437000BDF80E00A0B1FFE7FFE74EF21000CEF24D
:10438000000000680290FFE79DF80A00C0070028BF
:10439000F3D0FFE7BDF80E000138ADF80E00E7E7F7
:1043A000FFE74EF21800CEF2000000680090FFE731
:1043B000009801998842F4D8FFE704B07047D4D43C
:1043C00080B582B0ADF80200BDF9020005F0D8FA60
:1043D000ADF80600BDF9020005F0B0FAADF8040032
:1043E000019802B080BDD4D483B0029001910298AC
:1043F0000088019908800299B1F90200B1F904100E
:10440000401A44F6E611484300900098C00B019909
:10441000488003B07047D4D483B0029001910298D1
:104420000199B0F91620B0F91800B1F90030B1F9CE
:1044300002105A4310FB012000900098C00B029913
:1044400088830299B1F91600B1F918200199B1F9E0
:104450000030B1F902105A4300FB1120009000987F
:10446000C00B0299488303B07047D4D483B0029044
:1044700001910299B1F90400B1F906200199B1F94D
:104480000030B1F902105A4300FB1120009000984F
:10449000C00B029908800299B1F90400B1F9062015
:1044A000019BB3F90010B3F902305A4310FB01200D
:1044B00000900098C00B0299488003B07047D4D494
:1044C00082B00190009100988088019988800098BE
:1044D000C0880199C880009991F902200888104489
:1044E00008800098B0F90000B0F1FF3F06DCFFE75C
:1044F0000099088800F500400880FFE702B0704787
:1045000080B582B001908DF80310FFE740F2306073
:10451000C2F20000007810287DDCFFE70198006BF4
:104520000421FDF73DFE00285DD0FFE740F22400A6
:10453000C2F200000078012855D1FFE70198006B16
:104540000421FDF747FE40F23060C2F2000000781F
:1045500001283ADBFFE79DF8030001280EDBFFE7A7
:104560000198006B0021FDF7EFFD024640F2326139
:10457000C2F20001088810440880FFE79DF803009C
:1045800002280EDBFFE70198006B0121FDF7DCFD3F
:10459000024640F23461C2F20001088810440880EB
:1045A000FFE79DF8030003280EDBFFE70198006B8F
:1045B0000221FDF7C9FD024640F23661C2F2000158
:1045C000088810440880FFE7FFE740F22401C2F2A8
:1045D00000010020087040F23061C2F2000108784A
:1045E0000130087016E00198006B0421FDF7D8FD3A
:1045F00078B9FFE740F22400C2F2000000780128F9
:1046000007D0FFE740F22401C2F200010120087048
:10461000FFE7FFE77AE79DF80300012809D1FFE7EC
:1046200040F23260C2F200000088000901998885DA
:1046300025E09DF80300022801D1FFE71EE09DF868
:104640000300032819D1FFE740F23260C2F20000F4
:10465000008800090199C88440F23460C2F2000069
:10466000008800090199088540F23660C2F2000016
:104670000088000901994885FFE7FFE7FFE701206F
:1046800002B080BD80B584B0039002910398006BA6
:1046900000210091FDF758FD024600980399CB8C4C
:1046A000D21AA0EBC20008820398006B0121FDF72B
:1046B0004BFD0246009803990B8DD21AA0EBC20065
:1046C00048820398006B0221FDF73EFD02460098E8
:1046D00003994B8DD21AA0EBC20088820399888E71
:1046E000B1F91010484301900198039991F83820CE
:1046F000C2F10F02104108820399888EB1F912109D
:10470000484301900198039991F83820C2F10F02B3
:10471000104148820399888EB1F9141048430190E2
:104720000198039991F83820C2F10F021041888254
:104730000299B1F90600098B88420DDDFFE7039964
:10474000488A88810399888AC88103998889CA8997
:1047500010444042488136E00299B1F90800098BC3
:1047600088420DDDFFE70399088A48810399888A0A
:10477000C88103994889CA8910444042888121E050
:104780000299B1F90A00098B88420DDDFFE7039910
:10479000088A48810399488A8881039948898A89C7
:1047A00010444042C8810CE00399088A488103996B
:1047B000488A8881039948898A8910444042C8817F
:1047C000FFE7FFE7FFE704B080BDD4D482B00190DB
:1047D000009100980199486102B0704782B0019041
:1047E00000910198008E009908800198408E0099F0
:1047F00048800198808E009908840198C08E0099A5
:1048000048840099B1F910004A8C90408860009962
:10481000B1F912004A8C9040C86002B07047D4D4FD
:1048200082B00190019908684968401A0090009888
:104830000199B1F90810884211DBFFE70199B1F93C
:104840000820486810444860019801684068884220
:1048500004DBFFE7019908684860FFE71DE0009866
:104860000199B1F90A104942884211DAFFE701992A
:10487000B1F90A204868801A4860019801684068C8
:10488000884204DCFFE7019908684860FFE703E01D
:10489000019908684860FFE7FFE702B07047D4D489
:1048A00080B584B0ADF80E00102000F04DF90290F4
:1048B000BDF80E00042100F011FA0190BDF80E00C1
:1048C0000299088002990020488002998860019826
:1048D0000299C860029804B080BDD4D483B002901D
:1048E0000191029948880988884207DBFFE702990D
:1048F00000204880029901208880FFE70298808884
:10490000012811DBFFE702998868CA684B8852F8D2
:104910002320801A019A10448860029988680988C7
:1049200090FBF1F000900CE002998868019A104425
:104930008860029988684988013190FBF1F0009005
:10494000FFE70198DDF808C0DCF80C10BCF8022085
:10495000531CACF8023041F82200009803B07047B5
:1049600080B590B00F900F980090B0F9040005F05A
:1049700067FD0246009801920A46019942EC101B1D
:104980008DED020B006805F05BFD9DED021B41EC17
:10499000100B51EC110B53EC102B05F0F1FB41EC1B
:1049A000100B8DED0C0B9DED0C0B51EC100B9FEDD6
:1049B000240B53EC102B0793069205F0EDF941EC14
:1049C000100B53EC102B9FED200B51EC100B0591AD
:1049D000049005F0D5FB41EC100B51EC100B05F0E9
:1049E00017FC049A059B0F99C8809DED0C0B51ECA8
:1049F000100B0991089005F0E7FE069A079B844684
:104A000008988E4609994EEC10CB8DED0A0B05F0F7
:104A1000C3F99DED0A1B41EC100B51EC110B53EC4B
:104A2000102B05F0ADFB41EC100B51EC100B05F019
:104A3000EFFB0F99088110B080BD00BF00BF00BF21
:104A4000000000000000F03F00000000C0FFDF4059
:104A500010B584B0039002910398B0F906C0B0F984
:104A600008204FEAEC71D0F814E00369ACFB0304B2
:104A70000CFB0E4C01FB03C1029BC2FB0301019125
:104A8000009000980199C00B40EA4140CA13039975
:104A90004A6108610398006904B010BDF0B503AF26
:104AA0004DF804BD04460F4A54F8040D1268261848
:104AB000964203D000205DF804BBF0BD0D1A082D0E
:104AC00098BF0825284600F00FF8B04205D0411CD9
:104AD000F0D020C000F092F8ECE720682844206075
:104AE0000120E8E764050020F0B503AF4DF8048D20
:104AF000002816D4044600F0C9F8411C11D000F17A
:104B00000B010619DFF83C8021F007010C1FC8F8E3
:104B1000006084420ED0251A284600F0B7F8B04253
:104B200005D04FF0FF3420465DF8048BF0BD2844DB
:104B3000C8F80000D8F804000028F4D1C8F80440F0
:104B4000F1E700BF64050020F0B503AF4DF8048D18
:104B500010F1140F06D328490C2200F091F84250AE
:104B6000002039E00446224800F086F8E01D214C80
:104B700020F0070808F10805264624686CB154F8AF
:104B8000040CA84211D220680028F5D120462946FD
:104B9000FFF784FF0028EFD013E02846FFF7A4FFBB
:104BA000044601301BD020C40DE0401B082808D368
:104BB00021686151611941F8040C316044F8045CCA
:104BC00001E0206830600A4800F057F848F004011E
:104BD000204600F07FF820465DF8048BF0BD0649C2
:104BE0000C2200F04DF84250014800F046F8B7E7BB
:104BF0006C0500206005002008000000D0B502AF61
:104C0000C8B1044600202060184800F035F8184963
:104C1000086890B1A0420FD250F8042C8118A1422C
:104C20000146F5D154F8041C04461144026840F8CA
:104C3000041C104605E0D0BD0ED020600C6054F876
:104C4000041C621882420CD1026850F8040C08441B
:104C5000226044F8040C04E006490C2200F010F82D
:104C600042500248BDE8D04000F007B86C05002073
:104C7000600500200800000070477047D4D4D4D4E9
:104C8000014800687047000070050020D0B502AFF1
:104C90000C4A0146B1F1FF3F10680BDD0A4B1B1AAD
:104CA0008B420CD209490C22FFF7EAFF42504FF029
:104CB000FF30D0BD064B4C42C31AA342F2D301448D
:104CC0001160D0BD00000020082200200800000074
:104CD000082000200A460021FFF78BB8A0FB010145
:104CE00041B180B56F4604490C22FFF7C9FF42501D
:104CF000002080BDFFF728BF0800000080B582B00B
:104D0000019001980021C16101980162019881849C
:104D10000198C184019881620198C162019801865D
:104D200001984186019881860198C16301980164C8
:104D300001985830FFF74AFD02B080BD83B0029061
:104D4000029880680088C000ADF8020002980068F0
:104D5000B0F90000BDF90210484301900198C00B62
:104D60000299488302980068B0F90200BDF9021068
:104D7000484301900198C00B0299888303B07047A3
:104D800080B58EB01C20C4F202000190FDF722FD18
:104D900009A80490FDF73CFE0198049940F62E0204
:104DA000ADF82E201022ADF82C2040F66E32C2F263
:104DB00000020A92002208928DF833200123039307
:104DC0008DF8313043F6040CC4F2010CCDF808C064
:104DD000CDF824C08DF832208DF830208DF8353094
:104DE0008DF83420FDF72EFE0020C4F2020005905D
:104DF000022107911A22FDF779FD01980799089A77
:104E0000FDF74EFD3020C4F202000690FDF7E2FCF3
:104E10000498FDF7FDFDDDF808C0039B0499069892
:104E2000089A4FF00C0EADF82EE0ADF82C2041F6AC
:104E3000D03EC2F2000ECDF828E08DF833208DF878
:104E40003130CDF824C08DF832208DF830208DF827
:104E500035308DF83420FDF7F5FD05980321192232
:104E6000FDF744FD06980799089AFDF719FD0EB065
:104E700080BDD4D480B582B040F66832C2F2000260
:104E8000002010805080012191808DF80700FFE7FD
:104E90009DF80700092819DCFFE79DF8073040F26C
:104EA0004850C2F20000C25C40F66E31C2F200010E
:104EB000CA549DF80720805C114481F82E08FFE752
:104EC0009DF8070001308DF80700E1E740F66E31EC
:104ED000C2F20001FF2081F80A0841F2380288542A
:104EE0003020C4F202000121FDF7F2FC02B080BDC7
:104EF00080B584B043F60000C4F201001021FEF733
:104F000081FE002860D0FFE743F60000C4F20100F4
:104F10001021FEF78DFE3020C4F202000290002125
:104F2000FDF7D6FC0298FDF7B3FCC0F10C0040F68B
:104F30006831C2F20001088041F6D030C2F20000B0
:104F4000007841280ED0FFE70B208DF80F009DF868
:104F50000F2040F23670C2F20000E021082300F07A
:104F600095F925E041F6D030C2F2000040788DF886
:104F70000E0040F66830C2F200000188033941801B
:104F800040889DF80E10884203D1FFE700F01EF81C
:104F90000DE00C208DF80F009DF80F2040F23670C8
:104FA000C2F20000E021082300F070F9FFE7FFE7FC
:104FB0003020C4F2020001900C21FDF75FFC019843
:104FC0000121FDF785FCFFE704B080BD80B582B00C
:104FD00041F6D030C2F20000427840F22971C2F2AC
:104FE00000014A70807808700020ADF80600FFE7E5
:104FF000BDF8060040F22971C2F20001497801397A
:10500000884215DAFFE7BDF8062041F6D030C2F23B
:1050100000001044C07840F22971C2F2000111442E
:105020008870FFE7BDF806000130ADF80600DFE745
:10503000BDF8060041F6D031C2F200010844C17843
:1050400040F22970C2F200000090017300F038F8BD
:105050000099097B884223D1FFE740F2C961C2F27F
:1050600000010020087040F20650C2F200000078F3
:10507000102807DBFFE740F20651C2F200010120D1
:105080000870FFE740F22970C2F2000000F05EF8FD
:1050900040F20651C2F200010878013008700DE0BC
:1050A00009208DF805009DF8052040F23670C2F207
:1050B0000000E021082300F0E9F8FFE702B080BD1E
:1050C00083B0029000208DF80700ADF8040002982C
:1050D00008B9FFE736E002984178BDF804000844BB
:1050E000ADF8040002980178BDF804000844ADF85A
:1050F000040000208DF80300FFE79DF803000299EB
:1051000049780139884211DAFFE702989DF80310C7
:1051100008448178BDF804000844ADF80400FFE7B6
:105120009DF8030001308DF80300E6E7BDF80400A8
:105130008DF807009DF805109DF8070008448DF8CC
:105140000700FFE79DF8070003B0704780B586B001
:10515000059005980078013801460191052800F274
:1051600084800199DFE801F0030E18222C6A40F2D6
:105170003670C2F20000F02100224FF4807300F07C
:1051800085F880E0059880788DF812009DF812006F
:10519000059900F077F976E0059880788DF8110090
:1051A0009DF81100059900F02FFA6CE005988078C1
:1051B0008DF811009DF81100059901F055FA62E093
:1051C0000598817841F6DC30C2F200000170059943
:1051D000C97841F6DD32C2F2000200921170007807
:1051E000002101F08DFF014600988DF81010007825
:1051F000012101F085FF8DF80F009DF810009DF84A
:105200000F10084001280AD1FFE740F23670C2F2C1
:105210000000F02100231A4600F038F80DE00320CA
:105220008DF813009DF8132040F23670C2F2000092
:10523000E021082300F02AF8FFE724E041F6DC3003
:10524000C2F20000007841F6DD31C2F200010978B7
:1052500040EA01200290029A40F23670C2F2000049
:10526000F021102300F012F80DE001208DF813005A
:105270009DF8132040F23670C2F20000E0210823AE
:1052800000F004F8FFE706B080BDD4D480B588B044
:1052900007908DF81B100592ADF81230BDF8120082
:1052A000C008ADF810009DF81B0040F20651C2F294
:1052B00000010978084407990870BDF810000799A3
:1052C00048709DF8110007998870BDF812000146DA
:1052D0000291202830D80299DFE801F0112E2E2EFD
:1052E0002E2E2E2E122E2E2E2E2E2E2E162E2E2E12
:1052F0002E2E2E2E2E2E2E2E2E2E2E2E1E0048E040
:1053000005980799C87044E005980799C8700598F2
:10531000000A079908713CE005980799C87005983C
:10532000000A07990871BDF81600079948719DF8A1
:105330001700079988712CE000208DF80F00FFE717
:105340009DF80F1000201C2901900CDCFFE79DF850
:105350000F104AF65130C0F60000405C093818BF03
:1053600001200190FFE70198C00788B1FFE79DF891
:105370000F204AF65130C0F60000805C07991144B6
:10538000C870FFE79DF80F0001308DF80F00D7E7D8
:10539000FFE7079802F0A8FB079981F82700079814
:1053A00000F002F808B080BD83B002900020ADF894
:1053B0000600ADF8040002994878897840EA012097
:1053C0000330ADF80400FFE7BDF80600BDF8041097
:1053D00088424FDCFFE7BDF806000146009140B16E
:1053E000FFE7009801280ED0FFE70098022814D0AC
:1053F0001DE002980078BDF8062040F2CA61C2F2B2
:105400000001885430E002984078BDF8062040F250
:10541000CA61C2F20001885426E002988078BDF883
:10542000062040F2CA61C2F2000188541CE0BDF8B7
:105430000600BDF8041088420ADAFFE70298BDF8BA
:105440000620105C40F2CA61C2F2000188540AE0F2
:10545000029890F82700BDF8062040F2CA61C2F217
:1054600000018854FFE7FFE7BDF806000130ADF802
:105470000600A9E740F2C961C2F2000101200870EC
:1054800003B0704780B584B08DF80F0002919DF88D
:105490000F00013801460091072800F2A48000990E
:1054A000DFE801F0041423424E5D7D9740F2B361C2
:1054B000C2F200010120087040F23670C2F2000012
:1054C000F02100231A46FFF7E1FE9AE040F2B360B4
:1054D000C2F200000023037040F23670C2F20000F6
:1054E000F0211A46FFF7D2FE8BE040F2B460C2F220
:1054F0000000007801280DD1FFE740F29401C2F2CC
:1055000000010120887540F2B461C2F20001082058
:105510000870FFE740F23670C2F20000F02100236D
:105520001A46FFF7B3FE6CE002F016F840F2367050
:10553000C2F20000F02100231A46FFF7A7FE60E048
:1055400040F2B560C2F200000023037040F23670F2
:10555000C2F20000F0211A46FFF798FE51E040F237
:10556000B460C2F20000007801280ED1FFE740F2DB
:105570003821C2F20001012081F83D0040F2B461FF
:10558000C2F200010B200870FFE740F23670C2F251
:105590000000F02100231A46FFF778FE31E040F2C8
:1055A000B460C2F200000078012808D1FFE740F2A1
:1055B0000851C2F20001012081F83800FFE740F2F3
:1055C0003670C2F20000F02100231A46FFF75EFE9B
:1055D00017E040F23670C2F20000F02100231A46B4
:1055E000FFF754FE0DE006208DF807009DF8072018
:1055F00040F23670C2F20000E0210823FFF746FEB9
:10560000FFE704B080BDD4D480B586B08DF8170014
:1056100004919DF81700013801460191C82801F254
:1056200013800199DFE811F0C900DA00EB00FC00FB
:105630000E011F0130014101520163017401860115
:105640009801A901BA01CC01DE01F00101021202A8
:1056500024023602480259026A027C028E029B0230
:10566000A802B902CB02DD02EF02010313032503F6
:10567000370349035603630370037D038F03A103BC
:105680001008B303C403D603E803FA030C041E0492
:105690002F04400451046104710482049304A4049F
:1056A000B504C604D704E804F9040A051B052C0553
:1056B0003D054D055E056E057F059005A105B2050A
:1056C000C305D4051008E505FE05100818063206C6
:1056D000420652065E066A061008100810081008F6
:1056E0007B068C069D0610081008AE06BE06CF0687
:1056F000E006F106020712072207320742074E07AB
:105700001008100810081008100810085E076E072F
:105710007E078E079E07AE07BE07CE07DF0710087D
:1057200010081008100810081008100810081008B9
:1057300010081008100810081008100810081008A9
:105740001008100810081008100810081008100899
:105750001008100810081008100810081008100889
:105760001008100810081008100810081008100879
:105770001008100810081008100810081008100869
:105780001008100810081008100810081008100859
:105790001008100810081008100810081008100849
:1057A0001008100810081008100810081008100839
:1057B000100810081008F00700084FF60000C0F6A7
:1057C000030040680290029A40F23670C2F2000074
:1057D000F0211023FFF75AFD00F044BF4FF6000000
:1057E000C0F6030080680290029A40F23670C2F25E
:1057F0000000F0211023FFF749FD00F033BF4FF602
:105800000000C0F60300C0680290029A40F23670B1
:10581000C2F20000F0210823FFF738FD00F022BF9C
:1058200040F22270C2F20000B0F900000290029A29
:1058300040F23670C2F20000F0211023FFF726FD7F
:1058400000F010BF40F22470C2F200000088029005
:10585000029A40F23670C2F20000F0211023FFF7E6
:1058600015FD00F0FFBE40F22670C2F20000008875
:105870000290029A40F23670C2F20000F02110232A
:10588000FFF704FD00F0EEBE40F2B460C2F200008B
:1058900000780290029A40F23670C2F20000F021C5
:1058A0000823FFF7F3FC00F0DDBE40F23860C2F2DF
:1058B000000000780290029A40F23670C2F20000B6
:1058C000F0210823FFF7E2FC00F0CCBE40F2287084
:1058D000C2F2000000780290029A40F23670C2F2E2
:1058E0000000F0210823FFF7D1FC00F0BBBE40F21E
:1058F000A460C2F2000000680290029A40F2367082
:10590000C2F20000F0212023FFF7C0FC00F0AABE85
:1059100040F24460C2F20000B0F900000290029A26
:1059200040F23670C2F20000F0211023FFF7AEFC07
:1059300000F098BE40F24460C2F20000B0F90200EC
:105940000290029A40F23670C2F20000F021102359
:10595000FFF79CFC00F086BE40F24460C2F20000FB
:10596000008C0290029A40F23670C2F20000F021E0
:105970001023FFF78BFC00F075BE40F24460C2F2CA
:105980000000408C0290029A40F23670C2F2000091
:10599000F0211023FFF77AFC00F064BE40F24C00C7
:1059A000C2F20000B0F91E000290029A40F2367076
:1059B000C2F20000F0211023FFF768FC00F052BE95
:1059C00040F23810C2F20000B0F900000290029AD2
:1059D00040F23670C2F20000F0211023FFF756FCAF
:1059E00000F040BE40F23810C2F20000B0F90200F0
:1059F0000290029A40F23670C2F20000F0211023A9
:105A0000FFF744FC00F02EBE40F23810C2F2000056
:105A1000008C0290029A40F23670C2F20000F0212F
:105A20001023FFF733FC00F01DBE40F23810C2F225
:105A30000000408C0290029A40F23670C2F20000E0
:105A4000F0211023FFF722FC00F00CBE40F24C00C6
:105A5000C2F20000B0F920000290029A40F23670C3
:105A6000C2F20000F0211023FFF710FC00F0FABD95
:105A700040F26810C2F20000B0F900000290029AF1
:105A800040F23670C2F20000F0211023FFF7FEFB57
:105A900000F0E8BD40F26810C2F20000B0F9020068
:105AA0000290029A40F23670C2F20000F0211023F8
:105AB000FFF7ECFB00F0D6BD40F26810C2F2000028
:105AC000008C0290029A40F23670C2F20000F0217F
:105AD0001023FFF7DBFB00F0C5BD40F26810C2F2F7
